S31500060000E00200FB2F0000000000000000000000D8
S31500060010E0028AFE2F00000000000000FFFFFFFF3F
S31500060020E002E0FA2F0000000000000000000000D9
S31500060030E0026AFE2F00000000000000FFFFFFFF3F
S31500060040E002C0FA2F0000000000000000000000D9
S31500060050E0024AFE2F00000000000000FFFFFFFF3F
S31500060060E002A0FA2F0000000000000000000000D9
S31500060070E0022AFE2F00000000000000FFFFFFFF3F
S3150006008055AAFFFFFFFFFFFFFFFFFFFFFFFFFFFF73
S31500060090FFFFFFFFFFFFFFFFFFFFFFFFFFFFFFFF64
S315000600A0FFFFFFFFFFFFFFFFFFFFFFFFFFFFFFFF54
S315000600B0FFFFFFFFFFFFFFFFFFFFFFFFFFFFFFFF44
S315000600C0FFFFFFFFFFFFFFFFFFFFFFFFFFFFFFFF34
S31500060300581A03F003FD01E503E080FF4A02615235
S31500060310EA57000003F000E502FD481A7F00581A66
S3150006032003F003FD01E503E080FF16036152EA5779
S31500060330000003F000E502FD481A7F00581A03F094
S3150006034003FD01E503E080FF66026152EA570000FD
S3150006035003F000E502FD481A7F00031EE4FF03F0E2
S315000603600DFD0BE509BD01DD23E6140007C505CD28
S3150006037003D506B807D80796FFFF00C2120674FF14
S31500060380E20702D3E731E2D712D3E0D1CA1506C88F
S31500060390C50D19F0C2F23106A08A0E00D1F100355C
S315000603A080FFD000CAC141CAFBC9C1F5B7D9FBC196
S315000603B0EAD700001A5003F00AE50CFD00DD02D567
S315000603C004CD06C508BD031E1C007F00031EE0FF04
S315000603D003F00FFD0DE50BB509BD23E6180007C5AD
S315000603E005CD03D501DD06B808B03E06A08A0E0087
S315000603F00035893AC7D6FF00E20704DB00C2E6B934
S31500060400F1053E9F2D02F3B9E2DF16DBA50502DAFA
S31500060410E0D9EA0D18C8A50D1938C93A1730C731FB
S31500060420D63980FF6202CAC141CAFAC9E6F5FAC1DF
S31500060430B2059BDE01001B5003F00CE50EFD00DD48
S3150006044002D504CD06C508BD0AB5031E20007F00E9
S31500060450581A03F003FD01E503E080FF80076152A9
S31500060460EA57000003F000E502FD481A7F00000087
S31500060470031EE4FF03F00DFD0BE505CD23E6140090
S3150006048009BD07C503D501DD06C800C280FF700A8F
S315000604900A0601FF0AD0E2BF0000824D0A30013A81
S315000604A080FFAA0C0AD8E051BA351A3080FF920EA0
S315000604B00AD80A06FFFED20D6252B20D1A3080FF26
S315000604C0C20E0AD88D52D9051A3080FFC80A0AD834
S315000604D0E0D9EA1D193080FF3E0A390640420F0070
S315000604E01A3080FF5C0E0AD80A06FFFEF205625233
S315000604F0D2051A3080FF8C0E0AD85FCAEA0501C2F9
S31500060500E051E1BF14BBD5056252B2EDA5FD01BAB5
S3150006051061C2FA051A3080FFBC0DE051AA0DE50549
S31500060520E0D9C2051A3080FF6C0A1A3080FFF00A3D
S3150006053000DAE0B9CA05E0C1E2DF00001B5003F0AD
S315000605400AE50CFD00DD02D504CD06C508BD031E71
S315000605501C007F00541A03F005FD03E501DD23E6C2
S3150006056004008036FFFF80FF8A0BE0518A1D0A30A1
S31500060570013A80FF560CE051AA150132063880FF73
S315000605804A0CE051EADF0000C20DE0D9E25700004E
S3150006059003F002E504FD00DD4C1A7F0001DAE5F5FD
S315000605A0014A405EA0FF6B4F010085F5031EC8FF9A
S315000605B003F01BFD19E517C523E6300015CD13D547
S315000605C011DD3E06808A0E00BE0709800000BE07C2
S315000605D089700000BE0709610000BE078951000048
S315000605E0A3070F800000A3078F700000A3070F6103
S315000605F00000A3078F5100000432033880FF20074E
S31500060600E0510AD8EACF00000532033880FF10070A
S315000606100AD90632E1CF14CB033880FF02070AD97E
S31500060620E1CF14CBE0C9E257000003F018E51AFD46
S3150006063010DD12D514CD16C5031E38007F00541AD8
S3150006064003F005FD03E501DD23E60400405EA0FF99
S3150006065000326B070100063880FF700B0132E0514D
S315000606608A0D0A3880FF640BE051EADF0000A50513
S3150006067006D8E0D9E257000003F002E504FD00DDE6
S315000606804C1A7F00031EE0FF03F00FFD0DE50BB5C8
S3150006069005CD23E6180009BD07C503D501DD06C845
S315000606A007B000C280FF58080A0601FF0AD0E2BF5B
S315000606B00000924D0A30013A80FF920A0AD8E051AC
S315000606C0CA351A3080FF7A0C0AD80A06FFFED20D02
S315000606D06252B20D1A3080FFAA0C0AD88D52D9057D
S315000606E01A3080FFB0080AD8E0D9FA1D1930163834
S315000606F080FF62083906A08601001A3080FF420C88
S315000607000AD80A06FFFEF2056252D2051A3080FFA3
S31500060710720C0AD85FCAEA0501C2E051E1BF14BBF2
S31500060720D5056252B2EDA5FD01BA61C2FA051A30C7
S3150006073080FFA20BE051AA0DE505E0D9C2051A30E5
S3150006074080FF52081A3080FFD60800DAE0B9CA05DB
S31500060750E0C1E2DF00001B5003F00CE50EFD00DDF4
S3150006076002D504CD06C508BD0AB5031E20007F00C6
S31500060770031EE8FF03F00BFD09E507C505CD03D506
S3150006078023E6100001DD06D007C808C0D8000052CF
S31500060790E031B21DE039921D3B06C0090E00183045
S315000607A080FF9E0B0A06FFFEE2056252C20518305E
S315000607B080FFD00B5FDADA05014A594F0000B5050E
S315000607C06252E2EDE051C20501425A47000003F0CB
S315000607D008E50AFD00DD02D504CD06C5031E180090
S315000607E07F00031E9CFC23F6400311FD0FE50BB5A7
S315000607F009BD07C505CD23E65C030DAD03D501DDB1
S3150006080006C007B0D60008C809B80052160601FF8A
S315000608103E06000A32FFCA05019248970000889FE5
S31500060820010013D8E099CA1DFE1778831B40C24201
S31500060830C34141DA238EA00168DA6887A101D1F5A2
S315000608403E06000B32FF08DAFE1778731B38C23AEB
S31500060850D13941DA1B0698FF67770100E9F580076B
S31500060860096D089A7C6ADA0D80074965089A7C62E2
S31500060870FF6F0433E09963379502EA07E701B5058A
S3150006088059070000895F0100E059EA07D7011630CB
S31500060890203E800080FFB608E0518A35994F010058
S315000608A0E049EA07BF0197470100E041EA07B501BB
S315000608B02606001032FF80FFC2100AD80A0601FF7C
S315000608C0E2078D010A3080FF780A0A06FFFEE21566
S315000608D06252C2151B3080FFAA0A0A388D3AC9052C
S315000608E01B3080FFB006E051EA075F0126060010BE
S315000608F032FF80FFDA1080075601013259370000B1
S315000609008007600197970100E091EA0757012606DE
S31500060910001232FF80FF64100AD80A0601FFE21DA4
S315000609200A3080FF1C0A0A06FFFEC24D6252A24D1D
S315000609301B3080FF4E0A0A888D8AC9051B3080FF48
S315000609405406E0519A0D2606001232FF233EA001F8
S3150006095080FFCA10B505E051DA351930173816404A
S31500060960BFFF10FE997F0100E0799A45977701004F
S31500060970E071DA3D3806001332FF08DA183080FFD8
S31500060980FA0F0AA80A0601FFB2250A3080FFB20945
S315000609900A06FFFEB22562529225153080FFE4094B
S315000609A00A688D6AC905153080FFEA05E051EA0D29
S315000609B01B38C23A2366A0011830CC3980FF5E1078
S315000609C0F505018259870000A515E051FA0519308B
S315000609D017381640BFFF9CFDC505015A595F000032
S315000609E018C6200048DA1B0698FF99CD380600126D
S315000609F032FF00DAF81778431BF0C2F2C3F141DA88
S31500060A0068DA014581FD3806001332FF08DAF81761
S31500060A1078331BF0C2F2C3F141DA03381B0698FF9E
S31500060A200135E9F500DA1B48C24A23F6A001C9F1E9
S31500060A30C749008D29970100F289CA1541DA1B06B6
S31500060A4098FFA9F5A515E051FA07B3FE1930173830
S31500060A501640BFFF1EFD999F0100E099F207A9FE09
S31500060A6018C819F00182808323F640030EE510FDAF
S31500060A7000DD02D504CD06C508BD0AB50CAD031EBC
S31500060A8064037F00031EC8FF03F01BFD19E517C5A7
S31500060A9015CD13D511DD23E6300006C007C8D900EB
S31500060AA008D809D0404E02FE4086A1FF294F9D0771
S31500060AB09087A900005231065AA5A55AC9D7A8009B
S31500060AC0C2053106A55A5AA5638F0100C9DFA800DB
S31500060AD03006A55A5AA5C20530065AA5A55A6387F1
S31500060AE00500C9E7A8002F06A55A5AA5C2052F066E
S31500060AF05AA5A55A637F0900C9EFA8002E06A55A6E
S31500060B005AA5C2052E065AA5A55A9B6F01001F4275
S31500060B1007750F450D450B450945E069DA559A6790
S31500060B200100E0619A550A3080FF16080A06FFFEA4
S31500060B30821D6252E215003280FF48080A588D5A15
S31500060B40C905003280FF4E04E051BA0580FF540FF6
S31500060B50E051FA051B301A381940BFFF16FCB50DD1
S31500060B60014A03420A06F9EF5B4F0000E247143BCF
S31500060B70583F00009B370100E031EA259A9F0100A5
S31500060B80E099AA2580FFBA070A06FFFEA21D625251
S31500060B90821D003280FFEC070A908D92C90500324D
S31500060BA080FFF203E051DA05033080FF840FB505B6
S31500060BB0E051FA051B301A381940BFFFB6FBC505CA
S31500060BC0018A5B8F000003F018E51AFD10DD12D5C9
S31500060BD014CD16C5031E38007F00031EECFF03F076
S31500060BE009FD07E505D523E60C0003DD06D0460715
S31500060BF00000830382032606001032FF80FF7C0D69
S31500060C000AD81A300A3823460200234E0300BFFFCD
S31500060C10D4FB1A301B3823460200234E0300BFFFBF
S31500060C2066FE834F0300E0498A4DA3470300E04171
S31500060C309A5D083080FF0A070A06FFFEB245625231
S31500060C409245003280FF3C070A388D3AC9050032C4
S31500060C5080FF4203E051BA0580FF3613E051AA35FC
S31500060C601B4023360200233E0300BFFF06FB8337E5
S31500060C700300E031AA25A39F0300E099BA3580FF59
S31500060C80C0060A06FFFEE21D6252C21D003280FF42
S31500060C90F2060A908D92C905003280FFF802E051ED
S31500060CA0BA0580FF4013E051DA0D1B4023360200D9
S31500060CB0233E0300BFFFBCFA8387030061828A0DC9
S31500060CC0C505018A438F0200057A5A7F0000A3777D
S31500060CD00300E071FA05E051A20D1B3080FFB60253
S31500060CE0E5051B3080FFEE05E051CA051B3080FF87
S31500060CF02E03836F0300E0699A0DA3670300E06184
S31500060D00DA0501525A070000A505005203F006E56A
S31500060D1008FD02DD04D5031E14007F00031EC8FF6E
S31500060D2003F01BFD19E517C523E6300015CD13D5CF
S31500060D3011DD32060080A0FF6732BB650698C29AAF
S31500060D40F306460D06008007200080072A00800766
S31500060D5032008007AE008007360080074000800715
S31500060D604E0080075C0012D812CE1C0001D22086E7
S31500060D70FC01D52D12DE200002D21BCE1C0085FDFD
S31500060D8012DE400004D21BCE1C00A5F512DE800042
S31500060D9020D610001BCE1C00B5ED12DEA00020D614
S31500060DA020001BCE1C002086FC01951512DEC00015
S31500060DB020D640001BCE1C002086FC01850D12DEC7
S31500060DC0000201D21BCE1C002086FC0310C0D2C135
S31500060DD0C706030007F0F20503302046200080FF11
S31500060DE0440403F0087AFE17788BFB177A8BEF0616
S31500060DF00900399F01000F50388F01005A89B20544
S31500060E002056030103F018E51AFD10DD12D514CDA0
S31500060E1016C5031E38007F0040960002408E40002D
S31500060E20B231209EFF00F131E09F02537F004096CB
S31500060E304002408E4000B231209EFF00F131E19F14
S31500060E4002537F002056FF007F00541A03F005FD6B
S31500060E5003E501DD23E6040006D8BFFFBEFFE05129
S31500060E60920D1B30BFFFCAFF6152C2051B30BFFF82
S31500060E70D6FF03F002E504FD00DD4C1A7F00541A86
S31500060E8003F005FD03E501DD23E6040006D8BFFFF2
S31500060E908AFFE051C2051B30BFFF96FF03F002E54D
S31500060EA004FD00DD4C1A7F00541A03F005FD03E528
S31500060EB001DD23E6040006D8BFFF60FFE051C20548
S31500060EC01B30BFFF82FF03F002E504FD00DD4C1A6E
S31500060ED07F00541A03F005FD03E501DD23E6040051
S31500060EE006D8BFFF4CFF6152C2051B30BFFF58FF35
S31500060EF003F002E504FD00DD4C1A7F00581A03F0E4
S31500060F0003FD01E503E0BFFF44FF03F000E502FD34
S31500060F10481A7F00541A03F005FD03E501DD23E6B2
S31500060F20040006D8BFFFD8FF0A300A0601FFC20D25
S31500060F3080FF140340F602FE019A3EF79D071B301A
S31500060F40F09C80FF920603F002E504FD00DD4C1AD4
S31500060F507F00501A03F007FD05E503D501DD23E6FC
S31500060F60080006D807D0BFFF96FF0A300A0601FF1B
S31500060F70920D80FFD2021B301A40203E000280FFEF
S31500060F80D20503F004E506FD00DD02D5031E1000BA
S31500060F907F00541A03F005FD03E501DD23E6040090
S31500060FA006D8DB001B3080FF90020A06FFFEC20D44
S31500060FB01B3080FF920240F602FE204E50003EF79E
S31500060FC0A1070052804B03F002E504FD00DD4C1A32
S31500060FD07F00541A03F005FD03E501DD23E6040050
S31500060FE006D8DB001B3080FF50020A06FFFE92156C
S31500060FF01B3080FF520240F602FE1B303EF79D076D
S31500061000404D874AC90580FFCC02B505BFFF86FF5E
S3150006101003F002E504FD00DD4C1A7F00501A03F0CA
S3150006102007FD05E501DD23E6080003D506D8DB0046
S315000610301B3080FF04020A06FFFE82251B3080FF56
S3150006104006023A069C0702FE3A470100C8E7100068
S31500061050F2051B30BFFF7EFF0A06FBEFF20D3AF7DD
S315000610600100203600AA20560510C2343EF684003A
S3150006107070487048E049E957245303F004E506FD35
S3150006108000DD02D5031E10007F00501A03F007FD8F
S3150006109005E501DD23E6080003D506D8DB0000D208
S315000610A01B301A3880FFE4016252AA1D1B3080FFEE
S315000610B024020A06FBEFA2151B30BFFF62FF0A06D3
S315000610C0FBEFE05714D3CA0D1A5003F004E506FDEC
S315000610D000DD02D5031E10007F000AD0E5F540F6B6
S315000610E002FE209601FE3EF79D079403A094D5EDD9
S315000610F0031EECFF03F009FD07E505DD23E60C00FC
S3150006110000DA1BF0C1F22046FF00C3F141DA804443
S3150006111063DA81FD403E010003F00232013D82346E
S3150006112000DA1BF0C1F2C3F17030BFFF60FF0A069A
S31500061130FBEFD20541DA005263DAC1F503F006E5A4
S3150006114008FD04DD031E14007F00501A03F007FD98
S3150006115005E503D523E6080001DD06D0DA001A30D8
S3150006116080FFD6000A06FFFEE2251A3080FFD80069
S315000611703E069C0702FE613AAA0D00458847010015
S31500061180080680FFC20520560501D51500F507306D
S31500061190C6000052FE4F8500E649D20D209E002D60
S315000611A0869600AAC69CC2943EF68400704870488D
S315000611B0E6499A0D03F004E506FD00DD02D5031E99
S315000611C010007F000252F5F5501A03F007FD05E5FB
S315000611D003D523E6080001DD06D0DA001A3080FFC3
S315000611E058000A06FFFED2153E06004898FFE0D1D3
S315000611F0DA05013D033D024DC50D61D2DA05093D0D
S315000612000B3D0A4DE50562D2CA05113D133D124D49
S315000612101F0003F004E506FD00DD02D5031E1000DF
S315000612207F0006F0E505E71F70335F42FE1772334F
S31500061230E041AAFD7F00C600209E01016232E09FC2
S3150006124006537F004096A1FFC636FFFF3E069C0763
S3150006125002FEDA050195408E010095156132FA0502
S31500061260128E0040018D408E0200950D6232CA0D27
S3150006127033060080A1FF019D408E0300D289405EA1
S3150006128002FE6B8FA1077F00501A03F007FD05E5E6
S3150006129001DD23E6080003D506D8DB001B30BFFFB9
S315000612A098FF0A06FFFEE20D1B30BFFF9AFF404E6F
S315000612B002FEC700294F9D07E94F8500E749E20769
S315000612C0145303F004E506FD00DD02D5031E1000E7
S315000612D07F00501A03F007FD05E503D523E608004F
S315000612E001DD06D0DA001A30BFFF4EFF0A06FFFE02
S315000612F0F21D20DEE0061A30BFFF4CFF2706A007C8
S3150006130002FE27F701002036B3FF2056051060407F
S31500061310803340F602FE3EF79D07404D904AE05761
S315000613200253E105FB06130027F70100604003F0B0
S3150006133004E506FD00DD02D5031E10007F00541AE3
S3150006134003F005FD03E501DD23E6040006D8DB0010
S315000613501B30BFFFE4FE0A06FFFED20D1B30BFFFA1
S31500061360E6FE40F602FE02523EF79D07404D904AC3
S31500061370E157025303F002E504FD00DD4C1A7F0037
S31500061380541A03F005FD03E501DD23E6040006D83D
S31500061390DB001B30BFFFA2FE0A06FFFED27D1B3016
S315000613A0BFFFA4FE40F602FE3EF79D07404DDEE770
S315000613B01000B2450958875AC90520560010C56D52
S315000613C009508452C90520560210E56509409A421D
S315000613D0C9052056081085650938923AB90DE0D92F
S315000613E0CA0520560910855D61DA8A3D20560A101F
S315000613F0B55509408642C90520560B10D54D09300C
S315000614009C32C90520560710F54509989E9AC905C6
S3150006141020560610954509388F3AC90520560110FB
S31500061420B53D09308E32C90520560310D5358D4A8D
S31500061430D91520560410853509909B920452C12D64
S315000614400988998A0552812D09809182A90DE0D9CC
S315000614500652A22561DA0752F21D20560510C51D51
S315000614600998859A0852811D09789D7A0952C115EF
S31500061470C9760001C9960002C94E0400208E1100E5
S31500061480E071207E1000EE8F2483E091F07F2473B6
S31500061490E049EA77145303F002E504FD00DD4C1A31
S315000614A07F00541A03F005FD03E501DD23E604007B
S315000614B006D8DB001B30BFFF80FD0A06FFFEA21D15
S315000614C01B30BFFF82FD40F602FE00523EF79D0727
S315000614D0404D09409042E10D8C4AA90D40F602FEA8
S315000614E0203EB0FF3EF7A1070252803BB5052056C7
S315000614F0000103F002E504FD00DD4C1A7F00541AD4
S3150006150003F005FD03E501DD23E6040006D8DB004E
S315000615101B30BFFF24FD0A06FFFED2151B30BFFF98
S3150006152026FD40F602FE204E30A63EF79D072046D3
S31500061530D0FF00527E4F0401940340F602FE3EF7AA
S31500061540A107804303F002E504FD00DD4C1A7F0087
S3150006155040F602FE209EE8FF3EF79D07823A870088
S31500061560E03919353E06A00702FE0035469F000003
S31500061570008D513F00000788820D0085E817787BAD
S31500061580707F0100F1060B0000F52076D0FF807310
S315000615907F0040F602FE209EEDFF3EF79D07823A4B
S315000615A08700E03919353E06A00702FE0035469F3C
S315000615B00000008D513F00000788820D0085E81760
S315000615C0787B707F0100F1060B0000F52076D0FFD0
S315000615D080737F0040F602FE209620003EF79D07A8
S315000615E0208ED0FF19353E06A00702FE009D5397B2
S315000615F0000000F5808B7F0040F602FE209E230049
S315000616003EF79D072096D0FF19351B3D3E06A007DF
S3150006161002FE0035469F000000F580937F00501AB3
S3150006162003F007FD05E503D523E6080001DD06D030
S31500061630DA000032BFFF10FC405602FE1A302A5767
S315000616409D078A57A900BFFFFEFB03F004E506FDCA
S3150006165000DD02D5031E10007F00031ED0FF1E38D4
S3150006166003F017FD15E513D511DD23E6280007F06F
S315000616703A062080A0FFC60603001AD80638E6F703
S3150006168024F3F205033020462000BFFF98FB03F043
S31500061690088AFE177883FB177A83F10609003A9FB4
S315000616A01D00207E03013A97DD01D2960200EF97D0
S315000616B0345303F014E516FD10DD12D5031E300073
S315000616C07F00409E20FFF331E105409624FF00523D
S315000616D0F231B1052056FF007F00409E24FFF3310C
S315000616E0E105409628FF0152F231B1052056FF006A
S315000616F07F00409E28FFF331F1053206FFFF28FFE3
S31500061700F2310252B3052056FF007F00541A03F049
S3150006171005FD03E501DD23E60400BFFFA8FFE05152
S31500061720F205BFFFB8FF6152B205BFFFC8FF03F05F
S3150006173002E504FD00DD4C1A7F00541A03F005FD90
S3150006174003E501DD23E60400BFFF7AFFE051B2059B
S31500061750BFFF8AFF03F002E504FD00DD4C1A7F0099
S31500061760541A03F005FD03E501DD23E60400BFFF79
S3150006177054FFE051B205BFFF7CFF03F002E504FD0E
S3150006178000DD4C1A7F00541A03F005FD03E501DD62
S3150006179023E60400BFFF46FF6152B205BFFF56FFB0
S315000617A003F002E504FD00DD4C1A7F00581A03F02B
S315000617B003FD01E503E0BFFF56FF03F000E502FD6A
S315000617C0481A7F00501A03F007FD05E503D501DD2B
S315000617D023E6080006D807D0BFFFD4FF0A300A065C
S315000617E001FFA215BFFF60FA40F602FE209E30A654
S315000617F03EF79D0701921B301A387E9F040194031B
S31500061800F094BFFFF6FD03F004E506FD00DD02D504
S31500061810031E10007F00031EECFF03F009FD07E51B
S3150006182005CD03D501DD23E60C0006D807D0DA0080
S3150006183008C8BFFF7AFF0A300A0601FFB22DBFFFAE
S3150006184006FA40F602FE209E30A63EF79D071A06C9
S31500061850E0FF7E9F04019403E10D64D2E21568D28F
S31500061860C2051A06F0FFEA151B301A381940BFFFE3
S3150006187024FD85151A06E0FF82FD1A06C0FFD2F57D
S315000618801A0680FFA2F5E5051B3019401A38BFFF78
S31500061890C2FC03F006E508FD00DD02D504CD031EF5
S315000618A014007F00501A03F007FD05E503D501DD98
S315000618B023E6080006D807D0BFFFF4FE0A300A065C
S315000618C001FFC21DBFFF80F940F602FE209E30A62C
S315000618D03EF79D07208E71002086D0FF7E9F04016D
S315000618E094035E07D00019DD1BD53E06A00702FE4F
S315000618F00095528F000000F5808303F004E506FD8F
S3150006190000DD02D5031E10007F00501A03F007FD06
S3150006191005E503D501DD23E6080006D8DB0007D07A
S315000619201B30BFFF14F90A06FFFEF21D1B30BFFF70
S3150006193016F940F602FE3EF79D07FE3FA100A706F2
S3150006194071D0C2052056040185159E47D500E04193
S31500061950DA057A0701000850850D6C4D403620FFE2
S31500061960035206497A4F010003F004E506FD00DD41
S3150006197002D5031E10007F003206001032FFF23138
S31500061980B1251246FF07E831B315083E0108E731CF
S31500061990B11D079EFF07F331B30D138E0108F13112
S315000619A0B1151186FF070052F0318315B5050052B1
S315000619B07F002906000834FFE931E1050996FF078D
S315000619C00152F231B3052056FF007F00541A03F088
S315000619D005FD03E501DD23E6040006D8BFFF9CFFEF
S315000619E00A300A0601FFC215BFFF5CF840F602FE82
S315000619F0209647003EF79D07208ED0FF19DD3E064E
S31500061A00A00702FE009D5397000000F5808B03F0A9
S31500061A1002E504FD00DD4C1A7F00501A03F007FDAF
S31500061A2005E503D501DD23E6080006D007D8BFFF86
S31500061A304AFF0A300A0601FFF21DBFFF0AF840F602
S31500061A4002FE209645003EF79D0719D53E06A007DD
S31500061A5002FE009D53970000008D089251970000E4
S31500061A600085FB17787B707F0100F2060B0000F5F8
S31500061A702076D0FF807303F004E506FD00DD02D56F
S31500061A80031E10007F0080074990588CD20603007B
S31500061A90E205015280078F50588C7F0000527F0066
S31500061AA0031EECFF03F009FD07E505CD23E60C0052
S31500061AB003D501DD00D280FF26061A30BFFF88F760
S31500061AC0019240CE37FF80078F90588C39CF014858
S31500061AD0BFFFB6FF0AD8E051EA0531065AA5A55A50
S31500061AE0F1C9C20501DA20D6071080FFF405E0D950
S31500061AF0DA1540F602FE207687FF3EF79D07206E32
S31500061B00D0FF3006004037FF19853E06A00702FEC5
S31500061B10007D4F77000000F5806B1A5003F006E54E
S31500061B2008FD00DD02D504CD031E14007F00541AFD
S31500061B3003F005FD03E501DD23E6040006D80032C1
S31500061B40BFFF04F740F602FE207685FF3EF79D07A7
S31500061B5008623006004237FF009219853E06A00746
S31500061B6002FE007D4F770000006D4D67000012886B
S31500061B70C28A005DDB8941923157010068926B5734
S31500061B800100E1F500F5204ED0FF804B03F002E59B
S31500061B9004FD00DD4C1A7F00031EE4FF03F00DFD75
S31500061BA00BE509BD23E6140007C505CD03D501DD02
S31500061BB000DA1BB880FF28051730BFFF8AF6014AF0
S31500061BC040CE37FF80078F48588C39CF0142BFFF7A
S31500061BD0B8FE0AD0E05138065AA5A55A8A0D280637
S31500061BE0A55A5AA5E8C9F205F8C9D20509D020DED4
S31500061BF00710F50D0A30BFFF28FACA960400F8C981
S31500061C00DA05E091E20501BAC505E091E2BF0000FA
S31500061C1080FFCE04E0D1AA25E0B98A2580FFC0045C
S31500061C201730BFFF22F6013A80078F38588C1AF014
S31500061C30C2F22606EC550B00C6F100F500CDBFFF35
S31500061C4048FEE051BA05F8C9C20520DE0B10C505E7
S31500061C5041D26DD2D1ED80FF88041B5003F00AE510
S31500061C600CFD00DD02D504CD06C508BD031E1C000D
S31500061C707F00031EE4FF03F00DFD0BE509BD23E619
S31500061C80140007C505CD03D501DD00DA1BB880FFB4
S31500061C904E041730BFFFB0F5014A40CE37FF800726
S31500061CA08F48588C39CF0542BFFFDEFD0AD0E0517A
S31500061CB038065AA5A55A8A0D2806A55A5AA5E8C968
S31500061CC0F205F8C9D20509D020DE0710F50D0A304F
S31500061CD0BFFF4EF9CA960800F8C9DA05E091E20593
S31500061CE001BAC505E091E2BF000080FFF403E0D12A
S31500061CF0AA25E0B98A2580FFE6031730BFFF48F517
S31500061D00013A80078F38588C1AF0C2F226062056FA
S31500061D100B00C6F100F500CDBFFF6EFDE051BA051A
S31500061D20F8C9C20520DE0810C50541D26FD2D1ED2D
S31500061D3080FFAE031B5003F00AE50CFD00DD02D55D
S31500061D4004CD06C508BD031E1C007F00031EE4FF66
S31500061D5003F00DFD0BE509BD23E6140007C505CD09
S31500061D6003D501DD00D21AB880FF74031730BFFF12
S31500061D70D6F4014A40CE37FF80078F48588C39CFB4
S31500061D800942BFFF04FD0AD8E05138065AA5A55AEE
S31500061D908A0D2806A55A5AA5E8C9F205F8C9D20534
S31500061DA009D820D60710F50D0A30BFFF74F8CA9673
S31500061DB01000F8C9DA05E091E20501BAC505E09119
S31500061DC0E2BF000080FF1A03E0D9BA25E0B99A25DA
S31500061DD080FF0C031730BFFF6EF4013A80078F3879
S31500061DE0588C1BF0C2F226065C560B00C6F100F5AF
S31500061DF000CDBFFF94FCE051BA05F8C9C20520D64E
S31500061E000910D50541DA1B06E6FFC9ED80FFD202A9
S31500061E101A5003F00AE50CFD00DD02D504CD06C511
S31500061E2008BD031E1C007F00031EE4FF03F00DFD24
S31500061E300BE509BD23E6140007C505CD03D501DD6F
S31500061E4000D21AB880FF98020132BFFFFAF3014AA0
S31500061E5040CE37FF80078F48588C39CF0D42BFFFDB
S31500061E6028FC0AD8E05138065AA5A55A8A0D28062E
S31500061E70A55A5AA5E8C9F205F8C9D20509D820D641
S31500061E800710F50D0930BFFF98F7CA962000F8C966
S31500061E90DA05E091E20501BAC505E091E2BF000068
S31500061EA080FF3E02E0D9BA25E0B99A2580FF3002C6
S31500061EB00132BFFF92F3013A80078F38588C1BF028
S31500061EC0C2F22606C4560B00C6F100F500CDBFFFCA
S31500061ED0B8FBE051BA05F8C9C20520D60A10D505E1
S31500061EE041DA1B06E8FFC9ED80FFF6011A5003F03A
S31500061EF00AE50CFD00DD02D504CD06C508BD031EA8
S31500061F001C007F00031EECFF03F009FD07E505CD67
S31500061F1023E60C0003D501DD00DA80FFC2011B3083
S31500061F20BFFF24F3019240CE37FF80078F90588C6F
S31500061F3039CF0140BFFF52FB0AD0E051EA05310610
S31500061F405AA5A55AF1C9C20501D220DE071080FF9F
S31500061F509001E0D1BA15BFFF42FC0AD8E051EA0D5E
S31500061F60BFFF12FD0AD8E0519A0DBFFFE2FD0AD85F
S31500061F70E051CA05BFFFB4FE0AD81B5003F006E5BA
S31500061F8008FD00DD02D504CD031E14007F00541A99
S31500061F9003F005FD03E501DD23E60400BFFF68FF48
S31500061FA00AD8E0518A1D0A30BFFF9CF240F602FEAF
S31500061FB0208689FF3EF79D07207ED0FF3206004821
S31500061FC037FF19953E06A00702FE008D51870000D1
S31500061FD000F5807B1B5003F002E504FD00DD4C1A7C
S31500061FE07F00541A03F005FD03E501DD23E6040030
S31500061FF0BFFF14FF0AD8E0518A1D0A30BFFF48F218
S3150006200040F602FE208683FF3EF79D07207ED0FF20
S315000620103206004A37FF19953E06A00702FE008DD6
S315000620205187000000F5807B1B5003F002E504FD96
S3150006203000DD4C1A7F00541A03F005FD03E501DDA9
S3150006204023E6040006D80032BFFFFCF140F602FE86
S3150006205001923EF79D071B30F094BFFF7AF503F019
S3150006206002E504FD00DD4C1A7F00031EECFF03F0BB
S3150006207009FD07E505CD03D501DD23E60C0006D8E7
S3150006208007D0DA0008C80032BFFFBCF11A06E0FF27
S31500062090E10D64D2E21568D2C2051A06F0FFEA150A
S315000620A01B301A381940BFFFECF485151A06E0FFF7
S315000620B082FD1A06C0FFD2F51A0680FFA2F5E505CF
S315000620C01B3019401A38BFFF8AF403F006E508FDEF
S315000620D000DD02D504CD031E14007F007F007F00BD
S315000620E00001020304050607080C101418203040E8
S315000620F0000102030405060708090909090A0A0A6E
S315000621000A0B0B0B0B0C0C0C0C0D0D0D0D0D0D0D02
S315000621100D0E0E0E0E0E0E0E0E0E0E0E0E0E0E0ED4
S315000621200E0F0F0F0F0F0F0F0F0F0F0F0F0F0F0FB4
S315000621300F0000000000000001030000FFFF01FF82
S315000621400203040000FFFF03030500FF0300FF036D
S31500062150040002FF01FFFF0500FF05000203FF0062
S3150006216004FF010303FF0000080500110001040037
S31500062170000000000500030400010505050501022F
S315000621800502020103030503050503040500000015
S3150006219004C2210002C22100C2C12100F6C02100EC
S315000621A072C1210002C2210004C2210004C221001C
S315000621B004C2210004C2210002C2210016C0210069
S315000621C004C2210038C1210016C0210002C2210026
S315000621D098C02100C2C1210004C2210098C0210076
S315000621E004C2210004C22100C2C12100F6C021009A
S315000621F004C22100000000000000211042206330C6
S315000622008440A550C660E770088129914AA16BB142
S315000622108CC1ADD1CEE1EFF13112100273325222EA
S31500062220B5529442F772D662399318837BB35AA392
S31500062230BDD39CC3FFF3DEE36224433420040114BA
S31500062240E664C774A44485546AA54BB528850995E2
S31500062250EEE5CFF5ACC58DD553367226111630068A
S31500062260D776F6669556B4465BB77AA71997388732
S31500062270DFF7FEE79DD7BCC7C448E5588668A7784A
S315000622804008611802282338CCC9EDD98EE9AFF982
S31500062290488969990AA92BB9F55AD44AB77A966A2A
S315000622A0711A500A333A122AFDDBDCCBBFFB9EEBD2
S315000622B0799B588B3BBB1AABA66C877CE44CC55CFA
S315000622C0222C033C600C411CAEED8FFDECCDCDDD22
S315000622D02AAD0BBD688D499D977EB66ED55EF44ECA
S315000622E0133E322E511E700E9FFFBEEFDDDFFCCF72
S315000622F01BBF3AAF599F788F8891A981CAB1EBA1C6
S315000623000CD12DC14EF16FE18010A100C230E32041
S315000623100450254046706760B9839893FBA3DAB3E9
S315000623203DC31CD37FE35EF3B1029012F322D23291
S315000623303542145277625672EAB5CBA5A8958985B9
S315000623406EF54FE52CD50DC5E234C324A0148104E1
S315000623506674476424540544DBA7FAB79987B89789
S315000623605FE77EF71DC73CD7D326F2369106B01631
S3150006237057667676154634564CD96DC90EF92FE949
S31500062380C899E9898AB9ABA9445865480678276881
S31500062390C018E1088238A3287DCB5CDB3FEB1EFB29
S315000623A0F98BD89BBBAB9ABB754A545A376A167AD1
S315000623B0F10AD01AB32A923A2EFD0FED6CDD4DCDF9
S315000623C0AABD8BADE89DC98D267C076C645C454C21
S315000623D0A23C832CE01CC10C1FEF3EFF5DCF7CDFC9
S315000623E09BAFBABFD98FF89F176E367E554E745E71
S315000623F0932EB23ED10EF01E00000000F50F85307A
S31500062400EA1F0A611F108F51D43F14C2213091F280
S315000624103E201EA3CB2F9B93F7159615021A13255E
S315000624201D0A9C74E8051944232A82D7D62507E790
S31500062430C93588B63C3A0D86EE2B2C2B1B24A91BD8
S315000624400434264AF13BA37A3A1438E9CF1BBDD9A0
S31500062450D00B32882504B7B8193EBA3EEC313F0E8A
S31500062460F321B05F062E356FCD01AEFC380E2BCCB0
S31500062470271EA49DD21121ADDC5758562958DD6674
S3150006248036485237C347D70708684C94FD67C9A430
S31500062490E27746F51778C3C52B42CE43DE4D4B731E
S315000624A0C15DC42234524112FF7DDA810A725FB1E0
S315000624B01562D0E0E06D55D0327C747DC773F14D60
S315000624C0D8637E1C2D6CFB2CE64360BF134CE58F50
S315000624D00C5C6ADEF953EFEEC569E268306667584A
S315000624E02F76E809DA796D391156F6AAE459739A00
S315000624F0FB49FCCB0E4679FBB8AFB0AC4DA0359C7C
S3150006250052B0BACDA7BF3FFD6C90A46E999F215ECF
S31500062510868FAE0F73802B3F4FBA26B9BAB5A389FD
S31500062520A5A52CD850AAA9E89B85327B6E8AB74BFF
S31500062530719A381A8495BD2A56849C87A38B19B737
S31500062540BC9B96E6499413D682BB884577B40D752F
S3150006255068A482249DAB0714A1910A92549E8FA269
S315000625604B8E00F3BE8185C375AE1E5080A19B605F
S315000625709FB114316ABE910164F8E8FA91F76DCA03
S315000625808EE7E29B7BE867ABB0C7FC3845C879089F
S315000625905AD8F659AFD7736993ED7EEF66E2FBDF3D
S315000625A079F2748E8CFDF1BE47D26A2DB2DDEF1D2F
S315000625B0ADCD604C58C2E57C8AD3C4D17FDC41E1FF
S315000625C060CCCEB095C34B805EECD013ABE35523FF
S315000625D0B4F3DA7241FC5F427DC652C488C9D7F4A9
S315000625E097D958A562D6DD95A9F946065CF6C3368F
S315000625F043E64C67B6E9C9572F35DFC8DA3A5AF8C3
S31500062600C52AD5A930255099FB0ACB0A0E054E3A9E
S315000626101115C16BE41A445BD82049DD2D2FCCED8C
S31500062620323F43BCC730C68C0C1F5D1FF910D82F2E
S31500062630E600577E130FD24EC11EF3E3341176D34E
S315000626402B01F982DE0E7CB21521E721E02E6211FE
S31500062650FF3EED400A316870360B65F6C304E0C6E8
S31500062660DC146F97291BEAA7E2347134173BF4048E
S31500062670082B7B55FD24FE65F362879E066D02AE2A
S31500062680197D8DFFEC7208CF275D935CD252166CCE
S31500062690CD42993D384D1C0D0477118BF17894BBCC
S315000626A0EE681BEA1B679EDAD048054925478079FE
S315000626B03A570F28CF588A181D49ABB5E8462E85D6
S315000626C0F756A1D4025924E4C976BF773C793A472E
S315000626D02369B516D6663026EA5C3DA01F53B89028
S315000626E0004337C1F54CB2F13E632962CB6CAC525E
S315000626F0D47C23032173A633979A6F646295EA54B2
S315000627007D856505888AE03543A57BA6B6AAFE962D
S31500062710A9BA71C75CB5F4F7608FF97195807C41EB
S315000627208A90F3107F9F7620B4B0EDB341BF6883DD
S315000627305EAFE7D2ABA062E279B1434F8CBEC67FED
S3150006274093AE492E66A1CC1EAD8E578D5881D2BD4D
S3150006275047915DECB29ED8DC8EA4D55A7BAB506A07
S3150006276064BBDF3B91B45A0B5A9BC198AF9444A8FD
S31500062770B084CBF9458B4EC94BCD3732BEC2B202B9
S31500062780A1D23D5354DDB8639FF223F06AFDA6C07D
S3150006279075ED299180E2ACA1BCD8A12749D72417AB
S315000627A056C7AB46A3C82E7668E7B5E59DE830D58D
S315000627B082F8BF8477F73AB4A5E61B1950E99E2935
S315000627C04FF91178BAF6944871D90FDB84D68AEB9D
S315000627D09BC605BA6EC9808A52F38D0CA7FC083CC7
S315000627E0B8EC876D4DE3025D86CC99CE73C31CFEAD
S315000627F06CD393AF99DC169F000000000000000022
S315000628006F5FA703BE4C2EB35BA040A8573684F471
S3150006281034FFE7ABE97AAA47335E8FFF84C3D07BE2
S315000628205C0128FC3A8FFEC868FECF57D3F5548F55
S3150006283007A168546DB97A3C66BC1EFF0987A1F7E5
S3150006284009E3B9FCB7CB8F443D1C5E575EB1250341
S315000628505243F954E0FD0BB055E291008D44718C5C
S315000628603ABD360333085F3F0E42D1A8DA72F578D1
S31500062870611D76AB643EDBCB4966335138A19B7D41
S315000628802639945286EDB5CE12C673F96F971F890F
S315000628907D99D4FAD1DB313A7A38BCAEBC624B06A6
S315000628A015671BAD022E65B52198FC06EB54CFF2D3
S315000628B04EC75B055518E1412FDA2DAE31263A8A09
S315000628C040858AAD8F6A1439747A6D066610BE7EA7
S315000628D01B25CA05D85C90CD1C84A251B5E5EAF144
S315000628E073DB05520BA9C4424724E2F9E2D36E050F
S315000628F0287B45FA5C9F40B692CC66A2704237FBAF
S31500062900FD93C1A1CE0E1948C96C260A2774B30FCA
S31500062910A633810999389DBCA192E95DF481E780C9
S31500062920CECD4E5E4ACDC933FA32A9F5A3B7637446
S31500062930956D0EF61DFB4DC7F470785D79C5960C40
S315000629409B2FDF5EC789B8BFAFD038F52EF312F8D6
S31500062950C08F9FF690BF3C4BC72EF7A2FD06467763
S31500062960A87150A1434A68C49C8EB70AAA30C2838E
S31500062970F3D11009147CEC30DBAA55F348E3AC8698
S31500062980B4F5F2F0F6AF8235800A155B1FD52872CC
S31500062990EF55B258A19906C1E8F4DA0CCC207CFDB5
S315000629A087AB7D0F726C524EB3549AA49B16F809E8
S315000629B0DC0B3DA7255AD6BABD164B0C41640D71E4
S315000629C0D249EC0FFF2823C2E6B60BA41652898518
S315000629D089E9ACA7A81EA7368E48C4F3C5A7DD0AA3
S315000629E0E11763F07BEBF3B9D5E8845B929159FE68
S315000629F0BAB723582CDD774DA187C3EBCA2BB6642D
S31500062A00CED864E8746798D7FA2783439D1D32901B
S31500062A109578244023511C2392D94C144EE8661F00
S31500062A20FD86EB17F0A448ACC9790CBC19DEE2EBBF
S31500062A30A626ABBFA792CC58C73BDD14C3AC1793EB
S31500062A40A8647A177DE039209C9B9DBC949A93676F
S31500062A50F3C43ABF2AD6BDD4F46552EB476FC7E82E
S31500062A609B3AF5E8F923E95BAFC512431059431CB7
S31500062A70C09AB540AE156DAFE8E1F0BAF28A2D19E7
S31500062A8087BE57B94CC603AAB341B012A5BCA9ED79
S31500062A90DC1E17111BF0875EDBBF7F457649FD629C
S31500062AA0B4E0D846C805D3D1801F3FED217F79967D
S31500062AB0EF4098EE9F3357258E5DEE45FB0D8CEE67
S31500062AC0E10249464541A25DD5FDAEEDAC3B081A8D
S31500062AD0BAA209EE127726A9BD0361BA7FCE5C9526
S31500062AE0D25CC6B9C1827226E6A3211228F8D8613D
S31500062AF089FC861196B4F6D2334BA549BA69819FED
S31500062B005C14024A0425AF2C68EBE5E1ED5F056B24
S31500062B1007B442E253132BD800152AB63EAA51E44F
S31500062B206F4A8DB580E67F575BB56A1E699CD510E0
S31500062B3034EACD1DD7D0FBA355F7BBB6B3EE206856
S31500062B403AA81CB50DA20EDB0E57FB1EE4D8A49CB4
S31500062B5061085C1D5A948A2F66A93449372DF013ED
S31500062B6009F6934A8961DEA03D0974E1601B74E7A4
S31500062B705256D3E2DE575A547A2D961882C81AE26E
S31500062B801572311B3C843451218DD6B0D5FE9E1666
S31500062B904ED271B36BB2B0A5497319E7060BCA9943
S31500062BA0262CBEE4B847E42A12D3594F513D4E6D42
S31500062BB07D8CFE4CEF7160DE1C9188E78B4FBB1552
S31500062BC073CE2FE4350395A64731C84FDC793FE12E
S31500062BD0286E6F4C623511522FCF07180F8C6B6E0D
S31500062BE04090A01BB1C045DD746F47B058BAEF9A46
S31500062BF01B30E0B3E6F6C129420F87D795576CC955
S31500062C002D5020D42B1B427A19AFC77FC261E83DEF
S31500062C1076F0607C7C2DC68E715108281194BCB264
S31500062C201E0EAF2BAFD892012AF1488046A238462F
S31500062C3045AEEF83F8EE16F524B399289CD0CD3E23
S31500062C404BEC3E2B229CE38D7F13D980CBE649CAFB
S31500062C50104C7E8375AA677917ED16D718131D458E
S31500062C6078B2B1D4A65F33F64C4D567F4F2599B14F
S31500062C702312F17CF169B7020B69B486ADF6F7B497
S31500062C806436138513BAD90750C9F42EFAC07340B1
S31500062C903F96532D448C5DF338373B79293527CF3C
S31500062CA057689C7A9779097C63977BD17E03A33B09
S31500062CB00CC8DCD2C04F8D886DD5AA79A47156434F
S31500062CC0028A0D7A1A3D78F03675EAD1F347D2B7FD
S31500062CD0592A4DD24D0BFC045E8B258620B28638CA
S31500062CE031D482859EFEA88B052B652E778402CC71
S31500062CF06A74C22DC9C82C7FD0C3E175E5155B324F
S31500062D00BF9C46765B5975818B63A1DDB223DFC610
S31500062D10E43C06DE0C6FF175E39D6E8A61D68B493F
S31500062D208CC2C989DF9AA5FAB83D2E2236E00FBDB8
S31500062D30D762892188AC210EB67FFF8AEC92FAC546
S31500062D40D920588952DED476EDDFBF22BBA47E3168
S31500062D508280182105E850828521707568512ABE41
S31500062D60EA7ED776D61D040DDE8130DD3F67AE4A94
S31500062D70B1DE97DE812B80F999A5D224DDB4C04F4A
S31500062D80F6FA752763F8EEFCC205928C8A8244BB76
S31500062D90AD5A358F34CE6A08AAFB5DDB59771034F7
S31500062DA0C5A4FAD8E73B3E87F15B1D730E4194C076
S31500062DB09E04BA70B00DBA73FF19CCDBD43361B872
S31500062DC090466BD86A7F4F0BA4B98C738305E54C86
S31500062DD0CBE62B703D49CBFFCC47432450F0B1C31D
S31500062DE0A318E427EEBC9F7097E7038C07C6353712
S31500062DF0F8B8A48FB98A1B84E388443C5F7CDAADB5
S31500062E008CD7E33FE130F41EB8280494084A5E598D
S31500062E10D777A397B60670EAD0D6CBC3DBBF0AD65A
S31500062E20BF896CC065F324658B768B6B8C898E2285
S31500062E30E4292C6832C5A09185345AC356FB7B5AC1
S31500062E40EA6BFDC0E8B755E9DE941A6B01CDFFAE15
S31500062E50B1CBBD68BF81D11DB66AD53CD238AB2190
S31500062E60D935723F6C748592EDCA9594850E2FD529
S31500062E70829532973B420166AAEE776D67DD41D0B1
S31500062E80C5B1D06ED9916F63F14E37C530EBC52407
S31500062E909E1190C68EA7EB9799B0F892E31E91AB5A
S31500062EA0F6EF5F915D52BF18C210B83AB428155FA7
S31500062EB0AD4F1F390A643BECCC5269926E5AE02735
S31500062EC0A30DCE91D016CE9497F2293A396C64D3D7
S31500062ED0F8AD8E3987204A60FF0CE66DEA99305CBC
S31500062EE09053416E54D51EEFA4ACA6C5BDAFB4A88B
S31500062EF0CBF301C603E39A1B7144229E2F3EED5681
S31500062F001E1B859D9172C3E52AE46236780869A27E
S31500062F1045BBC535C6444711421AAD61ABFD3D2DCD
S31500062F202D450A6215B1139E19BAEDC9FCCBB9D95E
S31500062F3076E54ACA4287976A17F83C6126B94CA1D4
S31500062F4078A79B6298F562124C587CC9718FC85552
S31500062F502307DBCACFC3E6E624A6B39EA27A9CDA8B
S31500062F604BF9149D1C36B2697F06F336F54C182EBE
S31500062F70105954354B00369D382211CF179F762BA4
S31500062F80577DB6CCA9D358986382516740A9F2DF1C
S31500062F900CDDF664FEE5DC6C0B7C9E30935CA6507D
S31500062FA0642339332D1088E350DCDE98C46A22A4E4
S31500062FB03F83799B7A260C175E9E0F301E18D7DC48
S31500062FC031C1A833A054F96F053E4F98492E5328B0
S31500062FD06A61E89BF7627D9B6DC080CF9ADB07A787
S31500062FE0029F27CC249729143660C067CDED8353FC
S31500062FF0593F676473A1ADE0001D3A2774694E53C5
S31500063000E8F5D2CF9C81A6BBCDD0F7EAB9A4839EBC
S3150006301025381F02514C6B76879ABDA0F3EEC9D4AC
S315000630206F7255481B06213C4A57706D3E2304199C
S31500063030A2BF9885D6CBECF1130E2934677A5D408C
S31500063040FBE6C1DC8F92B5A8DEC3E4F9AAB7908D7C
S31500063050362B0C11425F78659489AEB3E0FDDAC76C
S315000630607C61465B0815322F5944637E2D30170A5C
S31500063070B1AC8B96C5D8FFE2263B1C01524F68754C
S31500063080CED3F4E9BAA7809DEBF6D1CC9F82A5B83C
S31500063090031E3924776A4D50A1BC9B86D5C8EFF22C
S315000630A04954736E3D20071A6C71564B1805223F1C
S315000630B08499BEA3F0EDCAD735280F12415C7B660C
S315000630C0DDC0E7FAA9B4938EF8E5C2DF8C91B6ABFC
S315000630D0100D2A3764795E43B2AF8895C6DBFCE1EC
S315000630E05A47607D2E3314097F6245580B16312CDC
S315000630F0978AADB0E3FED9C4002F5E71BC93E2CDCC
S3150006310057780926EBC4B59AAE81F0DF123D4C63BB
S31500063110F9D6A788456A1B34735C2D02CFE091BEAB
S31500063120240B7A5598B7C6E9DDF283AC614E3F109B
S315000631308AA5D4FB36196847E6C9B8975A75042B8B
S31500063140B19EEFC00D22537C48671639F4DBAA857B
S315000631501F30416EA38CFDD295BACBE4290677586B
S31500063160C2ED9CB37E51200F3B14654A87A8D9F65B
S315000631706C43321DD0FF8EA1E3CCBD925F70012E4B
S31500063180B49BEAC5082756794D62133CF1DEAF803B
S315000631901A35446BA689F8D790BFCEE12C03725D2B
S315000631A0C7E899B67B54250A3E11604F82ADDCF31B
S315000631B069463718D5FA8BA4052A5B74B996E7C80B
S315000631C0527D0C23EEC1B09FAB84F5DA17384966FB
S315000631D0FCD3A28D406F1E3176592807CAE594BBEB
S315000631E0210E7F509DB2C3ECD8F786A9644B3A15DB
S315000631F08FA0D1FE331C6D42000000009630077783
S315000632002C610EEEBA51099919C46D078FF46A70CE
S3150006321035A563E9A395649E3288DB0EA4B8DC79EE
S315000632201EE9D5E088D9D2972B4CB609BD7CB17E6E
S31500063230072DB8E7911DBF906410B71DF220B06A3E
S315000632404871B9F3DE41BE847DD4DA1AEBE4DD6D4E
S3150006325051B5D4F4C785D38356986C13C0A86B644E
S315000632607AF962FDECC9658A4F5C0114D96C06636E
S31500063270633D0FFAF50D088DC8206E3B5E10694C4E
S31500063280E44160D5727167A2D1E4033C47D4044B8E
S31500063290FD850DD26BB50AA5FAA8B5356C98B2426E
S315000632A0D6C9BBDB40F9BCACE36CD832755CDF45EE
S315000632B0CF0DD6DC593DD1ABAC30D9263A00DE511E
S315000632C08051D7C81661D0BFB5F4B42123C4B3560E
S315000632D09995BACF0FA5BDB89EB802280888055F8E
S315000632E0B2D90CC624E90BB1877C6F2F114C6858EE
S315000632F0AB1D61C13D2D66B69041DC760671DB01DC
S31500063300BC20D2982A10D5EF8985B1711FB5B606AD
S31500063310A5E4BF9F33D4B8E8A2C9077834F9000FED
S315000633208EA8099618980EE1BB0D6A7F2D3D6D088D
S31500063330976C6491015C63E6F4516B6B62616C1C7D
S31500063340D83065854E0062F2ED95066C7BA5011BAD
S31500063350C1F4088257C40FF5C6D9B06550E9B7124D
S31500063360EAB8BE8B7C88B9FCDF1DDD62492DDA150D
S31500063370F37CD38C654CD4FB5861B24DCE51B53A2D
S315000633807400BCA3E230BBD441A5DF4AD795D83D2D
S315000633906DC4D1A4FBF4D6D36AE96943FCD96E346D
S315000633A0468867ADD0B860DA732D0444E51D03334D
S315000633B05F4C0AAAC97C0DDD3C710550AA4102275D
S315000633C010100BBE86200CC925B56857B3856F202D
S315000633D009D466B99FE461CE0EF9DE5E98C9D9298D
S315000633E02298D0B0B4A8D7C7173DB359810DB42ECD
S315000633F03B5CBDB7AD6CBAC02083B8EDB6B3BF9A19
S315000634000CE2B6039AD2B1743947D5EAAF77D29DA4
S315000634101526DB048316DC73120B63E3843B649484
S315000634203E6A6D0DA85A6A7A0BCF0EE49DFF099384
S3150006343027AE000AB19E077D44930FF0D2A30887F4
S3150006344068F2011EFEC206695D5762F7CB676580A4
S3150006345071366C19E7066B6E761BD4FEE02BD389A4
S315000634605A7ADA10CC4ADD676FDFB9F9F9EFBE8E04
S3150006347043BEB717D58EB060E8A3D6D67E93D1A144
S31500063480C4C2D83852F2DF4FF167BBD16757BCA624
S31500063490DD06B53F4B36B248DA2B0DD84C1B0AAFC4
S315000634A0F64A0336607A0441C3EF60DF55DF67A844
S315000634B0EF8E6E3179BE69468CB361CB1A8366BCD4
S315000634C0A0D26F2536E2685295770CCC03470BBB24
S315000634D0B91602222F260555BE3BBAC5280BBDB224
S315000634E0925AB42B046AB35CA7FFD7C231CFD0B5C4
S315000634F08B9ED92C1DAEDE5BB0C2649B26F263ECB6
S315000635009CA36A750A936D02A906099C3F360EEBC3
S315000635108567077213570005824ABF95147AB8E283
S31500063520AE2BB17B381BB60C9B8ED2920DBED5E563
S31500063530B7EFDC7C21DFDB0BD4D2D38642E2D4F1B3
S31500063540F8B3DD686E83DA1FCD16BE815B26B9F643
S31500063550E177B06F7747B718E65A0888706A0FFFA3
S31500063560CA3B06665C0B0111FF9E658F69AE62F863
S31500063570D3FF6B6145CF6C1678E20AA0EED20DD763
S315000635805483044EC2B30339612667A7F71660D083
S315000635904D476949DB776E3E4A6AD1AEDC5AD6D9C3
S315000635A0660BDF40F03BD83753AEBCA9C59EBBDEE3
S315000635B07FCFB247E9FFB5301CF2BDBD8AC2BACA93
S315000635C03093B353A6A3B4240536D0BA9306D7CD03
S315000635D02957DE54BF67D9232E7A66B3B84A61C423
S315000635E0021B685D942B6F2A37BE0BB4A18E0CC3E3
S315000635F01BDF055A8DEF022D113112000001310035
S31500063600162200000831072205221622093100007B
S31500063610000102030405060708090A0B0001020455
S315000636207F317E000100000001000100020000005B
S315000636300400000003000000000100000400010071
S3150006364008310931303100000831093130310000C6
S315000636500931083116220000083109221622000017
S3150006366008313031093100000831303109310000A6
S31500063670121700000B0C0D10110000000B0C0D0E9E
S315000636800F0000001216012200000000C00F2200E3
S3150006369001000000E20F22000001000024102200B3
S315000636A0000200008C37220000030000760B220081
S315000636B0040000000000000000000000464722004B
S315000636C000000000000000000100000024012200A6
S315000636D00600000003000000020000002808220081
S315000636E00100000000000000030000004E36220024
S315000636F00000000000000000040000008A0122000D
S31500063700070000002907000005000000F2FD210061
S31500063710070000000000000006000000E606220082
S31500063720070000000400000007000000180D220034
S31500063730010000000000000008000000864D22007F
S31500063740504F2200524F2200864F2200225022005E
S31500063750245022008C502200B8502200E450220049
S31500063760F250220040512200125222001452220028
S315000637704852220034532200365322003853220080
S31500063780AC532200B4532200C2532200C255220073
S315000637907A56220072572200D65722009E582200D9
S315000637A0A0582200A25822002E5922003A59220079
S315000637B05C59220096592200BE592200BE592200A3
S315000637C00A5A2200E4592200E45922006C5A2200C1
S315000637D06C5A2200325A2200945A2200FFFFFFFF3B
S315000637E0FFFF000013000000130000005A0000004F
S315000637F059000000000000005A00000059000000B1
S31500063800000000001300000013000000590000002D
S3150006381059000000000000005A0000005900000090
S315000638200000000013000000130000003E00000028
S3150006383059000000030000005A000000590000006D
S315000638400000000013000000130000000B0000003B
S3150006385059000000000000000B000000590000009F
S3150006386000000000090000001300000032000000FE
S315000638705900000004000000330000005900000053
S3150006388005000000130000001300000004000000FD
S315000638902D00000006000000040000002D000000B8
S315000638A00600000013000000130000002F000000B1
S315000638B059000000070000002F0000005900000014
S315000638C007000000130000001300000006000000B9
S315000638D007000000000000000600000007000000C8
S315000638E0000000000500000013000000390000007B
S315000638F059000000000000003A00000039000000F0
S315000639000000000005000000130000000F00000084
S3150006391039000000000000003A00000039000000EF
S315000639200000000009000000130000002700000048
S3150006393033000000090000003B00000039000000CB
S3150006394000000000090000001300000053000000FC
S315000639503100000008000000530000003900000096
S3150006396000000000130000001300000027000000FE
S31500063970280000000D000000590000005900000054
S3150006398000000000130000001300000029000000DC
S31500063990590000000E000000590000005900000002
S315000639A000000000130000001300000039000000AC
S315000639B05900000000000000390000005900000010
S315000639C00000000013000000130000004100000084
S315000639D039000000000000005900000059000000F0
S315000639E00000000013000000130000004000000065
S315000639F039000000000000005900000059000000D0
S31500063A000000000013000000130000000200000082
S31500063A1059000000110000000200000059000000D5
S31500063A201100000009000000130000005900000004
S31500063A3059000000130000003800000014000000C2
S31500063A40140000000C000000130000000500000032
S31500063A5039000000000000001400000059000000B4
S31500063A60140000000900000013000000100000000A
S31500063A70590000001500000005000000390000008E
S31500063A80000000000A000000130000002E000000DF
S31500063A90590000001600000014000000590000003E
S31500063AA01400000008000000130000002E000000AD
S31500063AB0590000001600000016000000590000001C
S31500063AC01200000007000000130000003700000087
S31500063AD0390000000000000019000000590000002F
S31500063AE01900000007000000130000003700000060
S31500063AF03900000000000000130000005900000015
S31500063B001700000013000000130000000A00000062
S31500063B1039000000000000003900000059000000CE
S31500063B200000000005000000130000004F00000022
S31500063B3039000000000000005000000039000000B7
S31500063B40000000000500000013000000340000001D
S31500063B50590000001A00000050000000390000005D
S31500063B6000000000050000001300000035000000FC
S31500063B70590000001B00000050000000390000003C
S31500063B8000000000050000001300000036000000DB
S31500063B90590000001C00000050000000390000001B
S31500063BA00000000005000000130000002B000000C6
S31500063BB0590000001F0000005200000039000000F6
S31500063BC00000000005000000130000005900000078
S31500063BD059000000200000005200000039000000D5
S31500063BE00000000001000000130000002A0000008B
S31500063BF0590000001E0000002C00000059000000BD
S31500063C00210000000500000013000000510000001E
S31500063C1039000000000000005200000039000000D4
S31500063C200000000013000000130000000200000060
S31500063C3059000000220000000200000059000000A2
S31500063C40220000001300000013000000030000001D
S31500063C5039000000000000000300000039000000E3
S31500063C600000000013000000130000000000000022
S31500063C705900000024000000590000005900000009
S31500063C800000000013000000130000000100000001
S31500063C9059000000250000005900000059000000E8
S31500063CA00000000000000000130000003B000000BA
S31500063CB0390000000000000059000000590000000D
S31500063CC02700000002000000130000001C00000090
S31500063CD0590000002E00000059000000590000009F
S31500063CE0280000000D000000130000002000000060
S31500063CF015000000260000003B0000003900000009
S31500063D000000000002000000130000005900000039
S31500063D10590000002A000000590000005900000062
S31500063D202B00000000000000130000003B0000000E
S31500063D3039000000000000001D00000059000000C8
S31500063D402F0000000D000000130000003F000000D9
S31500063D5015000000290000003B00000039000000A5
S31500063D60000000000E0000001300000039000000ED
S31500063D70590000000000000059000000590000002C
S31500063D802D0000000B000000130000001D000000BF
S31500063D90590000002F0000001F0000005900000017
S31500063DA02900000013000000130000001A0000009E
S31500063DB0590000002C0000005900000059000000C0
S31500063DC00000000013000000130000001A000000A7
S31500063DD0590000002C0000005900000059000000A0
S31500063DE00000000009000000130000005900000052
S31500063DF059000000310000001400000059000000C0
S31500063E00320000000200000013000000050000005A
S31500063E101E00000036000000050000002E0000000F
S31500063E203700000009000000130000001000000023
S31500063E3059000000310000000500000039000000AE
S31500063E40000000000E00000013000000390000000C
S31500063E50590000000000000059000000590000004B
S31500063E6034000000070000000300000011000000F7
S31500063E703000000036000000110000005900000066
S31500063E80350000000A0000001300000022000000B2
S31500063E902E0000003700000022000000140000007B
S31500063EA03200000005000000040000005900000072
S31500063EB059000000350000001B00000059000000F4
S31500063EC03300000008000000130000001600000082
S31500063ED0590000003000000059000000590000009B
S31500063EE038000000090000000C0000005400000025
S31500063EF03900000000000000140000005900000010
S31500063F003200000002000000130000002500000039
S31500063F10590000003B0000002000000015000000CC
S31500063F203A00000013000000130000002500000000
S31500063F30590000003B00000039000000590000004F
S31500063F400000000007000000130000002600000025
S31500063F50590000003C000000320000005900000035
S31500063F603B00000013000000130000003C000000A8
S31500063F70390000000000000059000000590000004A
S31500063F8000000000070000001300000037000000D4
S31500063F9039000000000000003D0000005900000046
S31500063FA04100000006000000130000003900000072
S31500063FB059000000000000000C0000003900000057
S31500063FC000000000090000001300000008000000C1
S31500063FD021000000420000005900000059000000C0
S31500063FE04000000006000000130000003900000033
S31500063FF059000000000000000D0000003900000016
S315000640000000000013000000130000001700000067
S31500064010590000003E00000059000000590000004B
S31500064020000000000E000000130000000C00000057
S3150006403039000000000000003D00000059000000A5
S3150006404041000000130000001300000059000000A4
S315000640503900000000000000590000005900000069
S315000640600000000005000000130000002400000008
S3150006407059000000450000000E000000390000004F
S315000640800000000013000000130000000E000000F0
S3150006409039000000000000000E0000003900000094
S315000640A00000000013000000130000005500000089
S315000640B059000000470000005500000059000000A6
S315000640C04700000012000000130000005700000021
S315000640D05900000046000000560000005900000086
S315000640E04800000010000000130000004C0000000D
S315000640F05900000051000000390000005900000078
S315000641000000000007000000130000003900000050
S3150006411059000000000000001800000059000000C9
S315000641204B000000070000001300000039000000E5
S3150006413059000000000000001200000059000000AF
S3150006414049000000130000001300000009000000EB
S315000641503900000000000000590000005900000068
S315000641600000000009000000130000000500000022
S3150006417039000000000000004A0000002E00000082
S3150006418016000000130000001300000044000000A3
S31500064190590000004E0000005900000059000000BA
S315000641A000000000090000001300000046000000A1
S315000641B0590000004F0000004500000039000000CD
S315000641C00000000013000000130000004700000076
S315000641D05900000050000000590000005900000078
S315000641E0000000000900000013000000490000005E
S315000641F039000000000000004800000039000000F9
S315000642000000000011000000130000004D00000031
S315000642104B000000510000004D0000003900000070
S315000642200000000013000000130000004E0000000E
S315000642305900000000000000590000005900000067
S31500064240000000000F0000001300000043000000FD
S31500064250590000005300000042000000390000002B
S3150006426000000000D6B2230022B2230066B2230065
S3150006427032B2230084B22300B0B223004EB3230029
S315000642805EB323006EB323007EB323008EB32300F2
S315000642909EB32300B0B32300CEB32300C0B22300DF
S315000642A0CEB0230010B4230030B423005CB4230040
S315000642B00CB42300AE9223005A932300DC9323000A
S315000642C042952300B094230076B023008A952300F6
S315000642D08C9523004A9623007E9C2300D6A62300AF
S315000642E0749723001296230088962300DC962300F3
S315000642F0169823002EAD230060982300EAA123001A
S3150006430014A42300B8992300208E2300EE992300D7
S3150006431078A523009C9B230018A62300B09C2300A7
S31500064320109D2300509D2300CC9D23007AAD2300CB
S315000643302E9F230012A023008AA0230004A1230097
S31500064340B28723007EA12300A4A32300D4A32300BF
S31500064350BCA12300BEA223000CA52300BCA52300F6
S315000643607AA823009EA923006AAA2300D48D2300D7
S315000643703CAB230072AB230038AC230074AC23009D
S31500064380C2A92300F0AB230014AC23003EA72300EA
S3150006439096AC2300E8AC2300A0922300D8AD2300F8
S315000643A0E4AD2300F0AD2300FAAD23006CB4230080
S315000643B08EAE2300DCAF2300FAAF2300DEB0230067
S315000643C000B12300A4B523000CB6230018B62300BB
S315000643D048B62300AEB62300E0B6230010B7230086
S315000643E02EB7230072B7230092B72300DEB7230049
S315000643F08EB82300BEB82300ECB823001CB92300F0
S315000644005AB923000AB123004EB123009CB12300FA
S31500064410B48A23008E872300D8A6230002B223007F
S315000644204141414141414141414141414141414170
S315000644304141414141414141414141414141414160
S3150006444041414141414141414141413E4141413F55
S315000644503435363738393A3B3C3D41414140414196
S3150006446041000102030405060708090A0B0C0D0E96
S315000644700F1011121314151617181941414141410F
S31500064480411A1B1C1D1E1F202122232425262728F0
S31500064490292A2B2C2D2E2F303132334141414141D1
S315000644A041414141414141414141414141414141F0
S315000644B041414141414141414141414141414141E0
S315000644C041414141414141414141414141414141D0
S315000644D041414141414141414141414141414141C0
S315000644E041414141414141414141414141414141B0
S315000644F041414141414141414141414141414141A0
S31500064500414141414141414141414141414141418F
S31500064510414141414141414141414141414141417F
S315000645200000000000000000000000000707000071
S315000645300000000000000000000000000007000068
S31500064540000700000007000000070000FFFFFFFF4E
S31500064550FFFFFFFFFFFFFFFFFFF8FFFFFFFFFFFF66
S31500064560FFFFFFFFFFFFFFFFFFFFFFFFFFFFFFFF4F
S31500064570FFFFFFFFFFFFFFFFFFFFFFFFFFFFFFFF3F
S31500064580FFFFFFFFF8FFFFFFFFFFFFFFFFFFFFFF36
S31500064590FFFFFFFFFFF8FFFFFFF8FFFFFFF8FFFF34
S315000645A0FFF8FFFF01000000850000000200000082
S315000645B093000000040000009300000008000000BD
S315000645C086000000100000008700000020000000A2
S315000645D088000000400000009300000080000000F4
S315000645E093000000000100008900000000020000A0
S315000645F08A000000000400008B000000000800008E
S3150006460093000000001000008C000000002000004F
S3150006461093000000004000009300000000800000A8
S3150006462093000000000001008D000000000002005B
S315000646308E00000000000400930000000000080041
S315000646409300000000001000930000000000200008
S315000646509300000000004000930000000000800068
S315000646609300000000000001930000000000000215
S3150006467093000000000000049300000000000008FC
S3150006468093000000000000109300000000000020C8
S315000646909300000000000040930000000000008028
S315000646A08F000000010000009300000002000000D9
S315000646B093000000040000009300000008000000BC
S315000646C09300000010000000930000002000000088
S315000646D093000000400000009300000080000000E8
S315000646E09300000000010000930000000002000095
S315000646F0930000000004000093000000000800007C
S315000647000B000000001000009300000000200000CF
S3150006471093000000004000009300000000800000A7
S315000647209300000000000100930000000000020054
S31500064730930000000000040093000000000008003B
S3150006474093000000000010000C000000000020008E
S315000647509300000000004000930000000000800067
S3150006476093000000000000010D000000000000029A
S315000647700E000000000000040F0000000000000804
S3150006478010000000000000101100000000000020CC
S315000647901200000000000040130000000000008028
S315000647A09300000001000000140000000200000053
S315000647B093000000040000009300000008000000BB
S315000647C09300000010000000150000002000000005
S315000647D016000000400000001700000080000000E0
S315000647E0930000000001000018000000000200000F
S315000647F019000000000400001A000000000800006E
S315000648001B000000001000001C0000000020000035
S315000648101D000000004000001E0000000080000091
S3150006482093000000000001001F00000000000200C7
S31500064830200000000000040021000000000008001F
S3150006484022000000000010002300000000002000E7
S3150006485024000000000040009300000000008000D5
S315000648609300000000000001250000000000000281
S3150006487026000000000000042700000000000008D3
S31500064880280000000000001029000000000000209B
S315000648902A000000000000402B00000000000080F7
S315000648A02C000000010000002D00000002000000A0
S315000648B093000000040000009300000008000000BA
S315000648C09300000010000000930000002000000086
S315000648D093000000400000009300000080000000E6
S315000648E093000000000100002E00000000020000F8
S315000648F0930000000004000093000000000800007A
S3150006490093000000001000002F00000000200000A9
S3150006491093000000004000009300000000800000A5
S3150006492093000000000001003000000000000200B5
S3150006493031000000000004003200000000000800FC
S315000649403300000000001000930000000000200065
S315000649509300000000004000930000000000800065
S315000649609300000000000001340000000000000271
S3150006497035000000000000043600000000000008B4
S3150006498093000000000000109300000000000020C5
S315000649909300000000000040930000000000008025
S315000649A0930000000100000037000000020000002E
S315000649B0380000000400000039000000080000006E
S315000649C09300000010000000930000002000000085
S315000649D093000000400000009300000080000000E5
S315000649E093000000000100003A00000000020000EB
S315000649F03B000000000400003C0000000008000028
S31500064A009300000000100000930000000020000044
S31500064A1093000000004000009300000000800000A4
S31500064A2093000000000001003D00000000000200A7
S31500064A303E000000000004003F00000000000800E1
S31500064A409300000000001000930000000000200004
S31500064A509300000000004000930000000000800064
S31500064A609300000000000001400000000000000264
S31500064A70410000000000000442000000000000089B
S31500064A804300000000000010930000000000002014
S31500064A909300000000000040930000000000008024
S31500064AA09300000001000000440000000200000020
S31500064AB04500000004000000460000000800000053
S31500064AC0470000001000000048000000200000001B
S31500064AD049000000400000004A0000008000000077
S31500064AE04B000000000100004C0000000002000020
S31500064AF04D000000000400004E0000000008000003
S31500064B004F000000001000005000000000200000CA
S31500064B1051000000004000009300000000800000E5
S31500064B209300000000000100930000000000020050
S31500064B309300000000000400930000000000080037
S31500064B409300000000001000930000000000200003
S31500064B509300000000004000930000000000800063
S31500064B609300000000000001930000000000000210
S31500064B7093000000000000049300000000000008F7
S31500064B8093000000000000109300000000000020C3
S31500064B909300000000000040930000000000008023
S31500064BA05200000001000000530000000200000051
S31500064BB05400000004000000550000000800000034
S31500064BC09300000010000000930000002000000083
S31500064BD093000000400000009300000080000000E3
S31500064BE093000000000100005600000000020000CD
S31500064BF057000000000400005800000000080000EE
S31500064C00590000000010000093000000002000007C
S31500064C1093000000004000009300000000800000A2
S31500064C20930000000000010093000000000002004F
S31500064C309300000000000400930000000000080036
S31500064C409300000000001000930000000000200002
S31500064C5093000000000040005A000000000080009B
S31500064C605B000000000000015C000000000000027E
S31500064C705D000000000000045E0000000000000861
S31500064C805F000000000000109300000000000020F6
S31500064C909300000000000040930000000000008022
S31500064CA09300000001000000600000000200000002
S31500064CB06100000004000000620000000800000019
S31500064CC063000000100000009300000020000000B2
S31500064CD093000000400000009300000080000000E2
S31500064CE0930000000001000093000000000200008F
S31500064CF09300000000040000930000000008000076
S31500064D009300000000100000930000000020000041
S31500064D1093000000004000009300000000800000A1
S31500064D20930000000000010093000000000002004E
S31500064D309300000000000400930000000000080035
S31500064D409300000000001000930000000000200001
S31500064D509300000000004000930000000000800061
S31500064D60930000000000000193000000000000020E
S31500064D7093000000000000049300000000000008F5
S31500064D8093000000000000109300000000000020C1
S31500064D909300000000000040930000000000008021
S31500064DA093000000010000006400000002000000FD
S31500064DB093000000040000009300000008000000B5
S31500064DC065000000100000006600000020000000DC
S31500064DD0670000004000000093000000800000000D
S31500064DE093000000000100006800000000020000B9
S31500064DF069000000000400006A00000000080000C8
S31500064E0093000000001000006B0000000020000068
S31500064E1093000000004000009300000000800000A0
S31500064E2093000000000001006C0000000000020074
S31500064E306D0000000000040093000000000008005A
S31500064E409300000000001000930000000000200000
S31500064E509300000000004000930000000000800060
S31500064E60930000000000000193000000000000020D
S31500064E7093000000000000049300000000000008F4
S31500064E8093000000000000109300000000000020C0
S31500064E909300000000000040930000000000008020
S31500064EA06E000000010000006F0000000200000016
S31500064EB093000000040000009300000008000000B4
S31500064EC070000000100000007100000020000000C5
S31500064ED07200000040000000930000008000000001
S31500064EE093000000000100007300000000020000AD
S31500064EF074000000000400007500000000080000B1
S31500064F00930000000010000076000000002000005C
S31500064F10930000000040000093000000008000009F
S31500064F209300000000000100770000000000020068
S31500064F30780000000000040093000000000008004E
S31500064F4093000000000010009300000000002000FF
S31500064F50930000000000400093000000000080005F
S31500064F60930000000000000193000000000000020C
S31500064F7093000000000000049300000000000008F3
S31500064F8093000000000000109300000000000020BF
S31500064F90930000000000004093000000000000801F
S31500064FA079000000010000007A00000002000000FF
S31500064FB093000000040000009300000008000000B3
S31500064FC07B000000100000007C00000020000000AE
S31500064FD07D000000400000009300000080000000F5
S31500064FE093000000000100007E00000000020000A1
S31500064FF07F0000000004000080000000000800009A
S315000650009300000000100000810000000020000050
S31500065010930000000040000093000000008000009E
S31500065020930000000000010082000000000002005C
S315000650308300000000000400930000000000080042
S3150006504093000000000010009300000000002000FE
S31500065050930000000000400093000000000080005E
S31500065060930000000000000193000000000000020B
S3150006507093000000000000049300000000000008F2
S3150006508093000000000000109300000000000020BE
S31500065090930000000000004093000000000000801E
S315000650A08400000000000000000000000000000070
S315000650B00000000080A2000080A20000ABD800001D
S315000650C0D50E01004051000040510000556C00000D
S315000650D06B8700000000C5FF0001C5FF0002C5FF83
S315000650E00003C5FF10000100EC582400BE52240040
S315000650F0424E240022532400D2542400085524008C
S3150006510082532400805424003E55240074552400FE
S31500065110984F24007A5024009A4D2400544F2400B8
S31500065120704F2400705124000C522400A854240009
S31500065130BA4C2400C055240026562400DC5624000A
S315000651403E572400DA572400085824009A582400AB
S31500065150FE5924003A5A24007E592400A2592400F6
S31500065160CA5024002C5924003859240044592400D6
S31500065170185C240050592400E8532400C65924001C
S3150006518036502400585A2400665A2400F65B24003A
S31500065190865A2400C25A2400FE5A24005C5B240068
S315000651A07A5B2400AC5B2400866B2400FC57240043
S315000651B0EC5524002C6024002E6024003260240066
S315000651C00000000000000000B4510600B4510600BD
S315000651D0B4510600D85106003460240060602400ED
S315000651E090602400FFFFFFFF04000000240000007B
S315000651F0240000003100000031000000000000001D
S3150006520024000000240000003100000031000000E8
S315000652100000000024000000240000003100000009
S3150006522031000000000000003100000031000000DF
S31500065230000000000C000000240000003000000002
S3150006524001000000020000000B0000002400000020
S3150006525025000000010000000300000024000000F5
S3150006526024000000310000003200000001000000AA
S315000652703100000032000000010000000A000000B4
S315000652802400000032000000320000000200000088
S3150006529024000000240000000A000000320000007E
S315000652A00100000024000000240000000A0000009F
S315000652B032000000010000000F000000320000006E
S315000652C00100000002000000240000000B000000A0
S315000652D032000000010000000A0000002400000061
S315000652E03200000032000000030000002400000027
S315000652F0240000000A000000320000000100000041
S315000653000A00000032000000010000000D00000047
S3150006531024000000310000003200000004000000F6
S3150006532009000000050000002B0000003200000006
S3150006533006000000090000002400000032000000FC
S3150006534032000000050000003200000032000000B6
S31500065350090000001B000000190000001B000000E9
S31500065360320000000B0000001C00000024000000B4
S315000653703100000032000000050000002400000095
S315000653802400000021000000320000000900000091
S315000653903200000032000000090000000300000091
S315000653A0240000002D000000310000000600000069
S315000653B0040000001D0000002E0000003200000060
S315000653C00700000004000000240000002E00000074
S315000653D032000000050000001F0000003200000039
S315000653E009000000110000001E0000002800000051
S315000653F03200000005000000240000002400000022
S315000654001C00000016000000080000002400000032
S3150006541024000000320000003200000005000000F3
S315000654203200000032000000050000000D000000FA
S3150006543024000000310000003200000008000000D1
S31500065440090000001F0000003200000032000000C4
S3150006545005000000240000002400000028000000CB
S3150006546022000000050000003200000032000000A5
S315000654700500000010000000240000001C000000CB
S3150006548015000000040000002400000024000000AF
S3150006549009000000320000000A0000002400000097
S315000654A02400000009000000320000000A00000087
S315000654B009000000320000000A0000000600000095
S315000654C02400000018000000320000000A00000058
S315000654D02400000024000000190000000F00000050
S315000654E0220000002400000024000000190000002D
S315000654F00F00000022000000190000000F00000047
S31500065500220000000600000024000000170000002C
S31500065510310000000B0000002400000024000000FB
S315000655200F000000320000002200000024000000E8
S3150006553024000000320000003200000022000000B5
S3150006554032000000320000002200000006000000C3
S315000655502400000024000000310000000C000000BA
S315000655602300000023000000320000003200000085
S315000655702200000005000000240000002A000000AA
S31500065580320000000D00000032000000320000006C
S315000655900E00000003000000240000002D0000009D
S315000655A0310000000D000000040000002400000089
S315000655B02E000000320000000E000000240000004D
S315000655C02400000021000000100000002200000058
S315000655D03200000032000000220000001000000029
S315000655E0240000001A000000320000000F00000030
S315000655F01800000024000000100000003200000021
S315000656002200000024000000240000001400000010
S3150006561032000000120000003200000032000000D6
S31500065620220000000D0000002400000031000000EA
S31500065630320000000F000000100000000900000004
S315000656401D0000001A0000001000000010000000F7
S3150006565024000000140000003200000011000000C3
S315000656603200000032000000220000000D0000009B
S315000656702400000031000000320000001000000087
S3150006568009000000180000001000000032000000AB
S315000656902200000009000000240000001D00000092
S315000656A01400000011000000140000003200000083
S315000656B0110000000D00000024000000310000006B
S315000656C0320000001100000009000000240000005E
S315000656D01D00000014000000120000001500000066
S315000656E0240000001D000000140000001200000047
S315000656F01400000032000000110000000D0000003A
S3150006570024000000310000003200000012000000F4
S31500065710090000002400000010000000320000000E
S315000657202200000015000000240000001000000002
S3150006573032000000220000001400000032000000C3
