S31500000000001000180020002800300038004000488A
S31500000010005000580060006800700078008000887A
S315000000200090009800A000A800B000B800C000C86A
S3150000003000D000D800E000E800F000F8E00720005B
S31500000040E00F2000E0172000E01F200020362000EF
S31500000050E62F2000E06F2000E0772000E0872000F8
S31500000060E08F2000E0A72000E0E72000E0EF20007E
S31500000070E0172008E01F2008E0272008E05F20089E
S31500000080E0672008E0372010E0472010E0574010D6
S315000000906052A205850528060080FBFF014A484FED
S315000000A00000014A28060480FBFF484F000080FF3D
S315000000B008008207809D1F7080FF200080FF3800A7
S315000000C080FF500080FF680080FF800080FF98005E
S315000000D080FFB0000EF87F0000322706001000FEF9
S315000000E02806000008FEE741AA057F0067370100E1
S315000000F0443AA5FD00322706000010FE280600003F
S3150000010018FEE741AA057F0067370100443AA5FDBE
S3150000011000322706000040FE2806000048FEE741A0
S31500000120AA057F0067370100443AA5FD003227067D
S315000001300000C0FD28060000C1FDE741AA057F00BA
S3150000014067370100443AA5FD003227060000A0FDEE
S3150000015028060000A1FDE741AA057F0067370100D8
S31500000160443AA5FD00322706000080FD280600005F
S3150000017081FDE741AA057F0067370100443AA5FDE6
S3150000018000322706000060FD2806000061FDE741F9
S31500000190AA057F0067370100443AA5FD400E98FF87
S315000001A021170500C216030063129AFD220601A557
S315000001B0A5A5400E98FF61170107400E98FF21176D
S315000001C02101821602001A324611400E98FF61176D
S315000001D02101400E98FF21172901C2060200A2FD47
S315000001E00012A5054112C22EFFFF8036409CE6296B
S315000001F0A6FD400E98FF211701011E324611400E42
S3150000020098FF61170101400E98FF21170901C206E8
S315000002100100AAFD0012A5054112C22EFFFF80367D
S31500000220409CE629A6FD400E98FF21172101821663
S31500000230010019324611400E98FF61172101400E48
S3150000024098FF21172901C2060200A2FD0012A5058A
S315000002504112C22EFFFF8036409CE629A6FD2206EB
S3150000026000A5A5A5400E98FF611701077F0022068D
S3150000027001A5A5A5400E98FF61171117400E98FF1E
S3150000028061070110220600A6A5A5400E98FF61177A
S3150000029011177F00C505660701004432E639CBFD1C
S315000002A07F008505FFFFFFFFFFFFFFFFFFFFFFFF4B
S315000002B0FFFFFFFFFFFFFFFFFFFFFFFFFFFFFFFF48
S315000002C0FFFFFFFFFFFFFFFFFFFFFFFFFFFFFFFF38
S315000002D0FFFFFFFFFFFFFFFFFFFFFFFFFFFFFFFF28
S315000002E0FFFFFFFFFFFFFFFFFFFFFFFFFFFFFFFF18
S315000002F0FFFFFFFFFFFFFFFFFFFFFFFFFFFFFFFF08
S315000003001F00BF07FEFC0000000000000000000008
S315000003101F00BF0790FF0000000000000000000063
S3150000032000000000000000000000000000000000C7
S315000003301F00BF0770FF0000000000000000000063
S315000003401F00BF0760FF0000000000000000000063
S315000003501F00BF0750FF0000000000000000000063
S315000003601F00BF0740FF0000000000000000000063
S315000003700000000000000000000000000000000077
S315000003801F00BF0720FF0000000000000000000063
S315000003901F00BF0710FF0000000000000000000063
S315000003A01F00BF0700FF0000000000000000000063
S315000003B00000000000000000000000000000000037
S315000003C01F00BF07E0FE0000000000000000000064
S315000003D00000000000000000000000000000000017
S315000003E01F00BF07C0FE0000000000000000000064
S315000003F01F008207869B000000000000000000002E
S315000004001F00BF07A0FE0000000000000000000063
S315000004101F00BF0790FE0000000000000000000063
S315000004201F00BF0780FE0000000000000000000063
S315000004301F00BF0770FE0000000000000000000063
S315000004401F00BF0760FE0000000000000000000063
S315000004501F00BF0750FE0000000000000000000063
S315000004601F00BF0740FE0000000000000000000063
S315000004701F00BF0730FE0000000000000000000063
S315000004801F00BF0720FE0000000000000000000063
S315000004901F00BF0710FE0000000000000000000063
S315000004A01F00BF0700FE0000000000000000000063
S315000004B01F00BF07F0FD0000000000000000000064
S315000004C01F00BF07E0FD0000000000000000000064
S315000004D01F00BF07D0FD0000000000000000000064
S315000004E01F00BF07C0FD0000000000000000000064
S315000004F01F00BF07B0FDFFFFFFFFFFFFFFFFFFFF6E
S31500000500FFFFFFFFFFFFFFFFFFFFFFFFFFFFFFFFF5
S31500000510FFFFFFFFFFFFFFFFFFFFFFFFFFFFFFFFE5
S31500000520FFFFFFFFFFFFFFFFFFFFFFFFFFFFFFFFD5
S31500000530FFFFFFFFFFFFFFFFFFFFFFFFFFFFFFFFC5
S31500000540FFFFFFFFFFFFFFFFFFFFFFFFFFFFFFFFB5
S31500000550FFFFFFFFFFFFFFFFFFFFFFFFFFFFFFFFA5
S31500000560FFFFFFFFFFFFFFFFFFFFFFFFFFFFFFFF95
S31500000570FFFFFFFFFFFFFFFFFFFFFFFFFFFFFFFF85
S31500000580FFFFFFFFFFFFFFFFFFFFFFFFFFFFFFFF75
S31500000590FFFFFFFFFFFFFFFFFFFFFFFFFFFFFFFF65
S315000005A0FFFFFFFFFFFFFFFFFFFFFFFFFFFFFFFF55
S315000005B0FFFFFFFFFFFFFFFFFFFFFFFFFFFFFFFF45
S315000005C0FFFFFFFFFFFFFFFFFFFFFFFFFFFFFFFF35
S315000005D0FFFFFFFFFFFFFFFFFFFFFFFFFFFFFFFF25
S315000005E0FFFFFFFFFFFFFFFFFFFFFFFFFFFFFFFF15
S315000005F0FFFFFFFFFFFFFFFFFFFFFFFFFFFFFFFF05
S315000006005C9F02005C9F02005C9F02005C9F0200F0
S315000006105C9F02005C9F02005C9F02005C9F0200E0
S315000006206A4B04005C9F02005C9F02005C9F020014
S315000006305C9F0200ECA103005C9F02005C9F02002D
S315000006405C9F02005C9F02005C9F02005C9F0200B0
S315000006505C9F02005C9F0200A0F303005C9F020007
S315000006605C9F02005C9F02005C9F02005C9F020090
S315000006705C9F02005C9F02005C9F02005C9F020080
S315000006805C9F02005C9F02005C9F02005C9F020070
S315000006905C9F02005C9F02005C9F02005C9F020060
S315000006A05C9F02005C9F02005C9F02005C9F020050
S315000006B05C9F02005C9F02005C9F0200C435040040
S315000006C03E360400B8360400323704005C9F020050
S315000006D05C9F02005C9F02005C9F02005C9F020020
S315000006E05C9F02005C9F02005C9F02005C9F020010
S315000006F05C9F02005C9F02005C9F02005C9F020000
S315000007005C9F02005C9F02005C9F02005C9F0200EF
S315000009105C9F02005C9F02005C9F020076860300DB
S315000009205C9F02005C9F02005C9F02005C9F0200CD
S315000009305C9F02005C9F02005C9F02005C9F0200BD
S315000009405C9F02005C9F02005C9F02005C9F0200AD
S315000009505C9F02005C9F02005C9F02005C9F02009D
S315000009605C9F02005C9F02005C9F02005C9F02008D
S315000009705C9F02005C9F02005C9F02005C9F02007D
S315000009805C9F02005C9F02005C9F0200DC33040057
S31500000990563404005C9F02005C9F02005C9F0200CC
S315000009A05C9F0200D03404004A3504005C9F0200BC
S315000009B05C9F02005C9F02005C9F02005C9F02003D
S315000009C05C9F02005C9F02005C9F02005C9F02002D
S315000009D05C9F02005C9F02005C9F02005C9F02001D
S315000009E05C9F02005C9F02005C9F02005C9F02000D
S315000009F05C9F02005C9F02005C9F02005C9F0200FD
S31500000A005C9F02005C9F02005C9F02005C9F0200EC
S31500000A105C9F02005C9F02005C9F02005C9F0200DC
S31500000A205C9F02005C9F02005C9F02005C9F0200CC
S31500000A305C9F02005C9F02005C9F02005C9F0200BC
S31500000A405C9F02005C9F02005C9F02005C9F0200AC
S31500000A505C9F02005C9F02005C9F02005C9F02009C
S31500000A605C9F02005C9F02005C9F02005C9F02008C
S31500000A705C9F02005C9F02005C9F02005C9F02007C
S31500000A805C9F02005C9F02005C9F02005C9F02006C
S31500000A905C9F02005C9F02005C9F02005C9F02005C
S31500000AA05C9F0200B8190400F41D04005C9F02005C
S31500000AB0B01B04006A1E0400B81A0400261C0400B9
S31500000AC05C9F02005C9F02005C9F02005C9F02002C
S31500000AD05C9F02005C9F02005C9F02005C9F02001C
S31500000AE05C9F02005C9F02005C9F02005C9F02000C
S31500000AF05C9F02005C9F02005C9F02005C9F0200FC
S31500000B005C9F02005C9F02005C9F02005C9F0200EB
S31500000B105C9F02005C9F02005C9F02005C9F0200DB
S31500000B205C9F02005C9F02005C9F02005C9F0200CB
S31500000B305C9F02005C9F02005C9F02005C9F0200BB
S31500000B405C9F02005C9F02005C9F02005C9F0200AB
S31500000B505C9F02005C9F02005C9F02005C9F02009B
S31500000B605C9F02005C9F02005C9F02005C9F02008B
S31500000B705C9F02005C9F02005C9F02005C9F02007B
S31500000B805C9F02005C9F02005C9F02005C9F02006B
S31500000B905C9F02005C9F02005C9F02005C9F02005B
S31500000BA0F0CC03005C9F02005C9F020060CD030056
S31500000BB07E9F03005C9F02005C9F02005C9F020018
S31500000BC05C9F02005C9F02005C9F02005C9F02002B
S31500000BD05C9F02005C9F02005C9F02005C9F02001B
S31500000BE05C9F02005C9F02005C9F02005C9F02000B
S31500000BF05C9F02005C9F02005C9F02005C9F0200FB
S31500000C005C9F02005C9F02005C9F02005C9F0200EA
S31500000C105C9F02005CA203005C9F02005C9F0200D6
S31500000C205C9F02005C9F02005C9F02005C9F0200CA
S31500000C305C9F02005C9F02005C9F02005C9F0200BA
S31500000C405C9F02005C9F0200CCA203003CA3030051
S31500000C505C9F0200ACA303005C9F02005C9F020045
S31500000C605C9F02005C9F02005C9F02005C9F02008A
S31500000C705C9F02001CA403005C9F02005C9F0200B4
S31500000C805C9F02005C9F02005C9F02005C9F02006A
S31500000C905C9F02005C9F02005C9F02005C9F02005A
S31500000CA05C9F02005C9F02005C9F02005C9F02004A
S31500000CB05C9F02005C9F02005C9F02005C9F02003A
S31500000EC0029E0300729E03005C9F02005C9F02006C
S31500000ED05C9F02005C9F02005C9F02005C9F020018
S31500000EE05C9F02005C9F02005C9F02005C9F020008
S31500000EF05C9F02005C9F02005C9F02005C9F0200F8
S31500000F005C9F02005C9F02005C9F02005C9F0200E7
S315000012001F00BF07FEED0000000000000000000008
S315000012101F00BF0790F00000000000000000000063
S3150000122000000000000000000000000000000000B8
S315000012301F00BF0770F00000000000000000000063
S315000012401F00BF0760F00000000000000000000063
S315000012501F00BF0750F00000000000000000000063
S315000012601F00BF0740F00000000000000000000063
S315000012700000000000000000000000000000000068
S315000012801F00BF0720F00000000000000000000063
S315000012901F00BF0710F00000000000000000000063
S315000012A01F00BF0700F00000000000000000000063
S315000012B00000000000000000000000000000000028
S315000012C01F00BF07E0EF0000000000000000000064
S315000012D00000000000000000000000000000000008
S315000012E01F00BF07C0EF0000000000000000000064
S315000012F01F008207A48C0000000000000000000010
S315000013001F00BF07A0EF0000000000000000000063
S315000013101F00BF0790EF0000000000000000000063
S315000013201F00BF0780EF0000000000000000000063
S315000013301F00BF0770EF0000000000000000000063
S315000013401F00BF0760EF0000000000000000000063
S315000013501F00BF0750EF0000000000000000000063
S315000013601F00BF0740EF0000000000000000000063
S315000013701F00BF0730EF0000000000000000000063
S315000013801F00BF0720EF0000000000000000000063
S315000013901F00BF0710EF0000000000000000000063
S315000013A01F00BF0700EF0000000000000000000063
S315000013B01F00BF07F0EE0000000000000000000064
S315000013C01F00BF07E0EE0000000000000000000064
S315000013D01F00BF07D0EE0000000000000000000064
S315000013E01F00BF07C0EE0000000000000000000064
S315000013F01F00BF07B0EEFFFFFFFFFFFFFFFFFFFF6E
S31500001400FFFFFFFFFFFFFFFFFFFFFFFFFFFFFFFFE6
S31500001410FFFFFFFFFFFFFFFFFFFFFFFFFFFFFFFFD6
S31500001420FFFFFFFFFFFFFFFFFFFFFFFFFFFFFFFFC6
S31500001430FFFFFFFFFFFFFFFFFFFFFFFFFFFFFFFFB6
S315000021001F00BF07FEDE0000000000000000000008
S315000021101F00BF0790E10000000000000000000063
S3150000212000000000000000000000000000000000A9
S315000021301F00BF0770E10000000000000000000063
S315000021401F00BF0760E10000000000000000000063
S315000021501F00BF0750E10000000000000000000063
S315000021601F00BF0740E10000000000000000000063
S315000021700000000000000000000000000000000059
S315000021801F00BF0720E10000000000000000000063
S315000021901F00BF0710E10000000000000000000063
S315000021A01F00BF0700E10000000000000000000063
S315000021B00000000000000000000000000000000019
S315000021C01F00BF07E0E00000000000000000000064
S315000021D000000000000000000000000000000000F9
S315000021E01F00BF07C0E00000000000000000000064
S315000021F01F008207C47D00000000000000000000F0
S315000022001F00BF07A0E00000000000000000000063
S315000022101F00BF0790E00000000000000000000063
S315000022201F00BF0780E00000000000000000000063
S315000022301F00BF0770E00000000000000000000063
S315000022401F00BF0760E00000000000000000000063
S315000022501F00BF0750E00000000000000000000063
S315000022601F00BF0740E00000000000000000000063
S315000022701F00BF0730E00000000000000000000063
S315000022801F00BF0720E00000000000000000000063
S315000022901F00BF0710E00000000000000000000063
S315000022A01F00BF0700E00000000000000000000063
S315000022B01F00BF07F0DF0000000000000000000064
S315000022C01F00BF07E0DF0000000000000000000064
S315000022D01F00BF07D0DF0000000000000000000064
S315000022E01F00BF07C0DF0000000000000000000064
S315000022F01F00BF07B0DFFFFFFFFFFFFFFFFFFFFF6E
S31500002300FFFFFFFFFFFFFFFFFFFFFFFFFFFFFFFFD7
S31500002310FFFFFFFFFFFFFFFFFFFFFFFFFFFFFFFFC7
S31500002320FFFFFFFFFFFFFFFFFFFFFFFFFFFFFFFFB7
S31500002330FFFFFFFFFFFFFFFFFFFFFFFFFFFFFFFFA7
S315000030001F00BF07FECF0000000000000000000008
S315000030101F00BF0790D20000000000000000000063
S31500003020000000000000000000000000000000009A
S315000030301F00BF0770D20000000000000000000063
S315000030401F00BF0760D20000000000000000000063
S315000030501F00BF0750D20000000000000000000063
S315000030601F00BF0740D20000000000000000000063
S31500003070000000000000000000000000000000004A
S315000030801F00BF0720D20000000000000000000063
S315000030901F00BF0710D20000000000000000000063
S315000030A01F00BF0700D20000000000000000000063
S315000030B0000000000000000000000000000000000A
S315000030C01F00BF07E0D10000000000000000000064
S315000030D000000000000000000000000000000000EA
S315000030E01F00BF07C0D10000000000000000000064
S315000030F01F008207E46E00000000000000000000D0
S315000031001F00BF07A0D10000000000000000000063
S315000031101F00BF0790D10000000000000000000063
S315000031201F00BF0780D10000000000000000000063
S315000031301F00BF0770D10000000000000000000063
S315000031401F00BF0760D10000000000000000000063
S315000031501F00BF0750D10000000000000000000063
S315000031601F00BF0740D10000000000000000000063
S315000031701F00BF0730D10000000000000000000063
S315000031801F00BF0720D10000000000000000000063
S315000031901F00BF0710D10000000000000000000063
S315000031A01F00BF0700D10000000000000000000063
S315000031B01F00BF07F0D00000000000000000000064
S315000031C01F00BF07E0D00000000000000000000064
S315000031D01F00BF07D0D00000000000000000000064
S315000031E01F00BF07C0D00000000000000000000064
S315000031F01F00BF07B0D0FFFFFFFFFFFFFFFFFFFF6E
S31500003200FFFFFFFFFFFFFFFFFFFFFFFFFFFFFFFFC8
S31500003210FFFFFFFFFFFFFFFFFFFFFFFFFFFFFFFFB8
S31500003220FFFFFFFFFFFFFFFFFFFFFFFFFFFFFFFFA8
S31500003230FFFFFFFFFFFFFFFFFFFFFFFFFFFFFFFF98
S31500003F20021082AAAAAAAAAA021002AAAAAAAAAA3F
S31500003F30000000000000000000000000000000007B
S31500003F400000000000000000104100002C410000AD
S31500003F504B7385F6655CDA5B070000070707000010
S31500003F600300000000000000000000000000000048
S31500003F70010000004846010002000000D8EE0100E2
S31500003F800300000000000000000000000000000028
S31500003F9001000000984401000200000092EE0100BA
S31500003FA0000000000000000000000000000000000B
S31500003FB09CF9030032FB0300000000000000000033
S31500003FC00000000000010000545E00FE000000003A
S31500003FD0000001000000000020000000565E00FE08
S31500003FE0000000000000010000000000800000004A
S31500003FF0585E00FE00000100000001000000000005
S31500004000400000005A5E00FE0000020000000100B1
S3150000401000000000000200005C5E00FE00000300DD
S315000040200000010000000000008000005E5E00FE4F
S315000040300000040000000100000000000004000071
S31500004040605E00FE000006000000010000010000A6
S31500004050000000000000000000000000000000005A
S315000040600000000003010200200000000000000024
S31500004070000000000000000000000000000000003A
S3150000408000010300800000000000000000000000A6
S315000040900000000000000000000000000201000017
S315000040A040000000000000000000000000000000CA
S315000040B000000000000000000101010000020000F5
S315000040C000000000000000000000000000000000EA
S315000040D000000000040104000004000000000000CD
S315000040E000000000000000000000000000000000CA
S315000040F0050105000080000000000000000000002F
S31500004100000000000000000000000000060106009C
S315000041100C0000000D0000000E0000000F00000063
S3150000412010000000110000001100000030410000E6
S315000041300000000000000000604100006441000033
S3150000414024420000E8420000F4420000388200FEEB
S31500004150148D00FEFC4200006C430000704300001A
S3150000416007060001C207004001000000030000002E
S3150000417001000000FC420000000802007443000039
S3150000418008010000D0070000010000000100000047
S31500004190010000000C430000010802007843000003
S315000041A008010000130700400100000003000000A2
S315000041B001000000FC4200000010020074430000F1
S315000041C0100100004A070040010000000300000043
S315000041D0010000002C430000000802007C430000A0
S315000041E0080100003F070040010000000300000036
S315000041F0010000003C430000040802008043000068
S3150000420008010000C2070040010000000300000092
S31500004210010000004C430000000802008443000037
S3150000422008010000DF070000030000000000000096
S315000042300000000000000000000200000000000076
S31500004240420700000300000000000000000000001C
S31500004250010001000002000000000000DF0700006E
S315000042600500000000000000000000000200000041
S3150000427000020000000000004207000005000000E8
S315000042800000000000000000030001000002000022
S3150000429000000000CA070000030000000000000044
S315000042A000000000040004000002000000000000FE
S315000042B0BF0700000300000000000000000000002F
S315000042C0050005000002000000000000BE07000017
S315000042D003000000000000000000000006000600C9
S315000042E000020000000000008843000014440000A3
S315000042F00700070007000000DA0A1C00308D00FEE8
S31500004300000001007443000000010000408D00FE23
S31500004310010001007843000000010000508D00FEFE
S31500004320020001002444000000010000608D00FE30
S31500004330030001007C43000000010000708D00FEB8
S31500004340040001008043000000010000808D00FE93
S31500004350050001008443000000010000908D00FE6E
S315000043600100010028440000000100004B7385F69F
S31500004370655CDA5BA08D00FEE08D00FE208E00FEFF
S31500004380608E00FEA08E00FE00000000000000000F
S315000043902C440000020000000100000000000000A4
S315000043A0000000002E440000020001000100000091
S315000043B00000000000000000304400000100020080
S315000043C00100000000000000000000003144000071
S315000043D001000300010000000000000000000000D2
S315000043E0324400000100040001000000000000004B
S315000043F00000000033440000010005000100000039
S315000044000000000000000000344400000100060027
S315000044100100000000000100020003000400050086
S3150000442006000000E08E00FE208F00FE0002010361
S315000044300203040506494A4B8586870001010203EB
S3150000444004050607080C0C0C0C101010101414149C
S315000044501418181818202020202020202030303052
S315000044603030303030303030303030303040404016
S3150000447040404040404040404040404040000000F6
S31500004480E7537E97D81122CEB84400001C450000A1
S31500004490644500000C460000CC460000744700004E
S315000044A08047000084470000888F00FE988F00FE3A
S315000044B088470000A89400FE00001900140096002A
S315000044C0FF00000000000000190014009600FF0025
S315000044D0000000000000190014009600FF00000113
S315000044E001000000190014009600FF000001010001
S315000044F00000190014009600FF00000303000000EE
S31500004500190014009600FF000004040000001900C2
S3150000451014009600FF0000050500000019004B007E
S31500004520140000000000080019004B0014000101EF
S315000045300100080019004B001400010201000800E8
S3150000454019004B00140003030300080019004B0078
S31500004550140004040400080019004B0014000505AB
S315000045600500080000000000000000000100000037
S315000045700000000000000000010000000000000034
S315000045800100000001000000010000000001000021
S315000045900100000000000000020000000100000011
S315000045A00000000000020000000000000000000003
S315000045B003000000010000000100000000030000ED
S315000045C000000000000000000400000000000000E1
S315000045D001000000000400000100000000000000CF
S315000045E005000000000000000100000000050000BA
S315000045F001000000000000000600000000000000AE
S31500004600010000000006000001000000000000009C
S315000046100000000001000000000000000100000092
S315000046200000000001000000000000000000000083
S315000046300100000001000000000000000100000071
S315000046400000000000000000000000000000000064
S315000046500200000000000000000000000100000051
S315000046600000000000000000000000000000000044
S315000046700300000000000000000000000100000030
S315000046800000000000000000000000000000000024
S31500004690040000000000000000000000010000000F
S315000046A00000000000000000000000000000000004
S315000046B005000000000000000000000001000000EE
S315000046C000000000000000000000000000070000DD
S315000046D000000000000000000107000000000000CC
S315000046E000000000020800000000000000000000BA
S315000046F0030800000000000000000000040B00009A
S315000047000000000000000000050C00000000000092
S3150000471000000000060D0000000000000000000080
S315000047200000000000000000000100000100000081
S315000047300000000000010000010000000000000071
S31500004740000100000200000000000000000100005F
S31500004750030000000000000000010000040000004B
S31500004760000000000001000005000000000000003D
S3150000477000010000060607080A00AA000500060058
S31500004780E7537E97D81122CE0000010003000400F3
S315000047900500060007000000249500FE289500FE8F
S315000047A0309500FE03000000020202010101030031
S315000047B000000200020001000500020005000300DF
S315000047C003000400010001000100010001000200D5
S315000047D005000200020002000100010000000300C3
S315000047E00600060000000100030007000F001F007E
S315000047F03F007F000000000000002C0000000000C9
S315000048000000000000002C00000000000000000076
S315000048100000220000000000080000080008080050
S3150000482001020300DECD3DA0CEC9514C00000000C0
S31500004830FFFF86FF00000000F401000001000000F9
S315000048400000000000000000000000003200000030
S31500004850E49600FE000000000000000003000000D7
S31500004860FC4800000100000038490000010000007B
S315000048704C49000001000000249700FE0A000000D9
S315000048805449000000000000000000000000000085
S315000048900100000000000000000000000000000011
S315000048A00000000000000000000000000000000002
S315000048B00000000006000000444A0000805E00FE82
S315000048C003000000EC4A000007000000F04A000068
S315000048D0FE00000000000000F84A0000044B000043
S315000048E0104B0000DC9600FE244B00000000000088
S315000048F00000000003000000745E00FE05000000DA
S31500004900F401000032000000F40100000100000084
S3150000491005000000F401000032000000F401000070
S315000049200204000005000000F4010000320000004F
S31500004930F4010000030000000CFB020014FB02005F
S31500004940E80300001000100009030000344B0000CB
S31500004950000C000000000000544C000000000000A5
S315000049600000000020F0010000000001184D0000CA
S3150000497000000000000000000000000021F002021C
S3150000498000000A01284D00000000000000000000A1
S315000049900000000022F0020200000A01384D00006B
S315000049A00000000000000000000000005AF10F00A7
S315000049B000000A0100000000704C0000000000002A
S315000049C0000000005BF10F00000000010000000085
S315000049D08C4C0000000000000000000080F1200068
S315000049E00000000100000000A84C000000000000CC
S315000049F00000000087F11000000000010000000028
S31500004A00C44C000000000000000000008AF1030012
S31500004A100000000100000000E04C00000000000063
S31500004A200000000089F00500000000010000000001
S31500004A30FC4C0000000000000000000061F1A00036
S31500004A400000000166E40100000000000000000014
S31500004A50484D00005C4D00000000000000FF000013
S31500004A60E8E401000000000000000000484D0000DE
S31500004A705C4D00000000000001FF000018E6010088
S31500004A800000000000000000484D00005C4D0000E2
S31500004A900000000002D0000070E6010000000000E7
S31500004AA00000000000000000000000000000000000
S31500004AB003D0000030E50100000000000000000007
S31500004AC0484D00005C4D00000000000004D00000CE
S31500004AD074E5010000000000B6E50100484D000045
S31500004AE05C4D00000000000005D0000020212200DF
S31500004AF0010304061012300078E70100604D000043
S31500004B001A00000098E70100144E0000190000008A
S31500004B10C0F9020078E7010000FA020098E70100F8
S31500004B2020FA020000000000000000000000000063
S31500004B3000000000D0020300C84E00000000000084
S31500004B4000000000584D000010030100F0020300B1
S31500004B50044F00000000000000000000584D000057
S31500004B601101010014030300000000000000000012
S31500004B7000000000584D0000220000005C03030006
S31500004B80184F00000000000000000000544D000017
S31500004B902708010094030300B84F0000000000003E
S31500004BA0000000004C4D00002802010080030300B5
S31500004BB00000000000000000484D00005C4D0000B1
S31500004BC02E00000050030300E04F0000000000002C
S31500004BD00000000000000000310300002C03030069
S31500004BE00000000000000000484D00005C4D000081
S31500004BF03400000074030300000000000000000001
S31500004C00484D00005C4D00003600000038030300EC
S31500004C100000000000000000484D00005C4D000050
S31500004C2037000000680303001C500000000000006D
S31500004C3000000000584D00003E0101008C030300F7
S31500004C403050000000000000000000004C4D000045
S31500004C50850201001AE701000000000012E70100CA
S31500004C60484D00005C4D0000000000000000000000
S31500004C70CAE6010000000000C2E6010000000000D4
S31500004C80000000000000000000000000FAE601003D
S31500004C9000000000F2E60100000000000000000035
S31500004CA00000000000000000E2E601000000000035
S31500004CB0EAE601000000000000000000000000001D
S31500004CC000000000B2E6010000000000BAE60100A4
S31500004CD000000000000000000000000000000000CE
S31500004CE0DAE6010000000000D2E601000000000044
S31500004CF00000000000000000000000000AE70100BC
S31500004D000000000002E701000000000000000000B3
S31500004D1000000000000000002EE70100484D0000E2
S31500004D205C4D0000000000003AE70100484D00001D
S31500004D305C4D00000000000022E70100484D000025
S31500004D405C4D00000000000009090101010300009C
S31500004D500201030002020300030102030102000034
S31500004D600000000000000000000060FDFFFF60FD85
S31500004D70000000000000000000000000000080FDB0
S31500004D80FFFF80FD000000000000000000000000A2
S31500004D900000A0FDFFFFA0FD0000000000000000D5
S31500004DA0000000000000C0FDFFFFC0FD0000000085
S31500004DB000000000000000000000E0FDFFFFE0FD35
S31500004DC0000000000000000000000000000000FEDF
S31500004DD0FFFF07FE000000000000000000000000CA
S31500004DE0000010FEFFFF17FE00000000000000009C
S31500004DF000000000000040FEFFFF47FE000000002C
S31500004E000000000000000000000080FEFFFF83FE9F
S31500004E10000000000000000000000000000060FD2F
S31500004E20FFFF60FD00000000000000000000000021
S31500004E30000080FDFFFF80FD000000000000000074
S31500004E40000000000000A0FDFFFFA0FD0000000024
S31500004E5000000000000000000000C0FDFFFFC0FDD4
S31500004E600000000000000000000000000000E0FD5F
S31500004E70FFFFE0FD00000000000000000000000051
S31500004E80000000FEFFFF07FE00000000000000001B
S31500004E9000000000000010FEFFFF17FE00000000EB
S31500004EA00000000000000000000040FEFFFF47FE7B
S31500004EB0000000000000000000000000000080FE6E
S31500004EC0FFFF83FE0000000000000000000000005D
S31500004ED000000000584D0000010000000000000026
S31500004EE00000000000000000584D00000200000015
S31500004EF0000000000000000000000000584D000007
S31500004F000300000000000000000000000000000098
S31500004F10584D0000010000000000000000000000E5
S31500004F20000000000000000001000000000000007A
S31500004F300000000000000000000000000200000069
S31500004F40000000000000000000000000000000005B
S31500004F500300000000000000000000000000000048
S31500004F600000000004000000000000000000000037
S31500004F700000000000000000050000000000000026
S31500004F800000000000000000000000000600000015
S31500004F90000000000000000000000000544D00006A
S31500004FA011000000000000000000000000000000EA
S31500004FB0544D000012000000000000000000000038
S31500004FC000000000544D0000030000000000000037
S31500004FD00000000000000000544D0000000000002A
S31500004FE000000000000000000000000000000000BB
S31500004FF001000000000000000000000000000000AA
S315000050000000000002000000000000000000000098
S315000050100000000000000000030000000000000087
S315000050200000000000000000584D000000000000D5
S315000050300000000000000000000000004C4D0000D1
S315000050400100000000000000000000000000000059
S315000050504C4D0000020000000303030006000000A0
S315000050608C5000007C51000000000000FF00000092
S31500005070000000000000000000000000000000002A
S31500005080C4510000CC510000D051000000030200C2
S3150000509000000000D4510000E45100002852000036
S315000050A07C51000001000000749700FE949700FEFA
S315000050B0000000000503020000000000D4510000BB
S315000050C0E4510000285200007C510000000000005E
S315000050D0889700FE949700FE00000000020302007D
S315000050E000000000D4510000E451000028520000E6
S315000050F094510000010000007C9700FE949700FE8A
S31500005100000000000303020000000000D45100006C
S31500005110E4510000285200009451000000000000F5
S31500005120809700FE949700FE000000000406110020
S3150000513000000000F4510000045200001452000068
S31500005140AC51000000000000849700FE909700FE1E
S31500005150000000000104110000000000D45100000E
S31500005160E4510000285200007C51000000000000BD
S31500005170789700FE8C9700FE0000000001000000FA
S31500005180D4510000989700FEA49700FEB09700FE49
S315000051900100000002010000D45100009C9700FEAF
S315000051A0A89700FEB19700FE010000000302000070
S315000051B0F4510000A09700FEAC9700FEB29700FEE7
S315000051C0010000003C52000000000000DECD3DA0C2
S315000051D0CEC9514CB49700FEB4A700FED4A700FE7A
S315000051E00010000004A800FEBCA700FEE0A700FE19
S315000051F00010010008A800FEC4A700FEECA700FEF0
S315000052000010020008B800FECCA700FEF8A700FEBA
S315000052100010030032000000000000000000000043
S31500005220000000000500000032000000020000003F
S31500005230020000000000000003000000000053020E
S315000052408CC1F24000000000000000006000000079
S315000052505452000000000000E2FD01008AFE010039
S31500005260ACFB010052FA0100120B020022080200F8
S315000052706C0D02008A05020004100200120B0200E7
S3150000528022080200D60B02008A050200240F020043
S3150000529054150200BA120200A2140200BA12020049
S315000052A020120200EA100200400102007A00020009
S315000052B0F8240100000000000000000000000000CB
S315000052C0184501005E2C01007A2B01000000000049
S315000052D000000000000000000000000000000000C8
S315000052E000000000000000000000000000000000B8
S315000052F000000000000000000000000000000000A8
S3150000530042580100985A0100005F0100A0600100A8
S31500005310405E0100000000000000000000000000E8
S31500005320000000000000000000000000BD020D4764
S31500005330ED975217000000007C53000080530000D8
S3150000534084530000CC550000D458000070000000C3
S31500005350946100001C6700000CB800FECCBC00FE87
S315000053604C68000002004C005C6800000E00000063
S31500005370ECBC00FE88680000DC680000ED97521760
S31500005380BD020D47262A00030000272A010300005C
S31500005390702A020300002E2A03030000012A0403D8
S315000053A000001A2A05030000472A06030000032A04
S315000053B007030000492A08030000022A0903000027
S315000053C03A2A0A030000362A0B030000392A0C0386
S315000053D00000042A0D030000052A0E030000122A0D
S315000053E00F030000572A100300001C2A11030000B7
S315000053F03B2A120300003C2A13030000002A140370
S315000054000000592A150300000C2A160300001D2A65
S31500005410170300000D2A18030000192A19030000BB
S31500005420222A1A0300001E2A1B0300002D2A1C0331
S315000054300000612A1D030000292A1E030000102A0D
S315000054401F0300005B2A200300003D2A2103000001
S315000054503E2A220300000F2A23030000412A2403C8
S315000054600000182A25030000422A260300001B2AF2
S3150000547027030000432A28030000462A29030000C8
S315000054801F2A2A030000282A2B0300002A2A2C039D
S3150000549000002B2A2D030000692A2E0300006D2A26
S315000054A02F0300002F2A30030000112A31030000C9
S315000054B0342A32030000242A33030000382A340336
S315000054C00000302A35030000312A360300003F2A47
S315000054D037030000322A380300004E2A3903000041
S315000054E0502A3A030000522A3B030000532A3C0389
S315000054F00000202A3D030000232A3E030000622A02
S315000055003F030000632A40030000652A41030000B0
S31500005510562A42030000542A43030000552A440336
S315000055200000582A450300005A2A460300005C2A58
S3150000553047030000812A48030000482A4903000067
S315000055405F2A4A030000602A4B0300007F2A4C03AF
S3150000555000000B2A4D0300000E2A4E030000352AD8
S315000055604F030000452A500300004C2A5103000057
S315000055705D2A520300005E2A53030000062A5403E4
S315000055800000082A55030000092A560300000A2ACB
S3150000559057030000332A58030000642A5903000009
S315000055A0372A5A030000442A5B030000402A5C03A2
S315000055B00000212A5D030000252A5E0300002C2A34
S315000055C05F0300006E2A6003000000009461000083
S315000055D004000000B461000004000400D46100006F
S315000055E001000800DC61000002000900EC61000017
S315000055F003000B000462000001000E000C620000B4
S3150000560001000F0014620000040010003462000064
S31500005610010014003C620000020015004C6200000C
S31500005620020017005C6200000100190064620000BD
S3150000563001001A006C62000001001B007462000089
S3150000564001001C007C62000005001D00A462000031
S3150000565003002200BC62000005002500E462000091
S3150000566001002A00EC62000001002B00F462000039
S3150000567002002C000463000004002E0024630000D6
S31500005680030032003C630000040035005C63000048
S31500005690050039008463000003003E009C6300009F
S315000056A003004100B463000004004400D46300001A
S315000056B004004800F463000003004C000C64000082
S315000056C005004F0034640000010054003C640000F3
S315000056D00300550054640000010058005C6400009B
S315000056E0010059006464000001005A006C64000067
S315000056F001005B007464000001005C007C64000033
S3150000570001005D008464000002005E0094640000F5
S3150000571004006000B464000002006400C464000079
S3150000572003006600DC64000003006900F464000006
S3150000573002006C000465000002006E0014650000A3
S31500005740010070001C650000030071003465000054
S31500005750010074003C650000020075004C65000005
S31500005760020077005C650000020079006C650000AD
S3150000577002007B007C65000001007D00846500005E
S3150000578001007E008C65000002007F009C65000021
S3150000579001008100A465000001008200AC650000E4
S315000057A001008300B465000001008400BC650000B0
S315000057B001008500C465000001008600CC6500007C
S315000057C002008700DC65000001008900E465000036
S315000057D002008A00F465000001008C00FC650000F0
S315000057E002008D000C66000001008F0014660000A8
S315000057F00200900024660000030092003C66000050
S31500005800020095004C6600000100970054660000F7
S31500005810010098005C6600000100990064660000C3
S3150000582001009A006C66000001009B00746600008F
S3150000583001009C007C66000001009D00846600005B
S3150000584001009E008C66000001009F009466000027
S315000058500100A0009C6600000100A100A4660000F3
S315000058600100A200AC6600000100A300B4660000BF
S315000058700100A400BC6600000100A500C46600008B
S315000058800100A600CC6600000100A700D466000057
S315000058900100A800DC6600000100A900E466000023
S315000058A00100AA00EC6600000100AB00F4660000EF
S315000058B00100AC00FC6600000100AD0004670000BA
S315000058C00100AE000C6700000100AF001467000085
S315000058D00100B000FCBC00FE54CE00FE000000003B
S315000058E0F4D000FE0803000014BD00FE5ACE00FEF0
S315000058F000000000F7D000FE080300002CBD00FEEB
S3150000590060CE00FE00000000FAD000FE0803000092
S3150000591044BD00FE66CE00FE00000000FDD000FE85
S31500005920080300005CBD00FE6CCE00FE0000000017
S3150000593000D100FE0803000074BD00FE72CE00FE1A
S315000059400000000003D100FE080300008CBD00FE2D
S3150000595078CE00FE0000000006D100FE080300001D
S31500005960A4BD00FE7ECE00FE0000000009D100FEB0
S3150000597008030000BCBD00FE84CE00FE000000004F
S315000059800CD100FE08030000D4BD00FE8ACE00FE46
S31500005990000000000FD100FE08030000ECBD00FE71
S315000059A090CE00FE0000000012D100FE08030000A9
S315000059B004BE00FE96CE00FE0000000015D100FEDB
S315000059C0080300001CBE00FE9CCE00FE0000000086
S315000059D018D100FE0803000034BE00FEA2CE00FE71
S315000059E0000000001BD100FE080300004CBE00FEB4
S315000059F0A8CE00FE000000001ED100FE0803000035
S31500005A0064BE00FEAECE00FE0000000021D100FE06
S31500005A10080300007CBE00FEB4CE00FE00000000BD
S31500005A2024D100FE0803000094BE00FEBACE00FE9C
S31500005A300000000027D100FE08030000ACBE00FEF7
S31500005A40C0CE00FE000000002AD100FE08030000C0
S31500005A50C4BE00FEC6CE00FE000000002DD100FE32
S31500005A6008030000DCBE00FECCCE00FE00000000F5
S31500005A7030D100FE08030000F4BE00FED2CE00FEC8
S31500005A800000000033D100FE080300000CBF00FE3A
S31500005A90D8CE00FE0000000036D100FE080300004C
S31500005AA024BF00FEDECE00FE0000000039D100FE5D
S31500005AB0080300003CBF00FEE4CE00FE000000002C
S31500005AC03CD100FE0803000054BF00FEEACE00FEF3
S31500005AD0000000003FD100FE080300006CBF00FE7E
S31500005AE0F0CE00FE0000000042D100FE08030000D8
S31500005AF084BF00FEF6CE00FE0000000045D100FE89
S31500005B00080300009CBF00FEFCCE00FE0000000063
S31500005B1048D100FE08030000B4BF00FE02CF00FE1D
S31500005B20000000004BD100FE08030000CCBF00FEC1
S31500005B3008CF00FE000000004ED100FE0803000062
S31500005B40E4BF00FE0ECF00FE0000000051D100FEB3
S31500005B5008030000FCBF00FE14CF00FE000000009A
S31500005B6054D100FE0803000014C000FE1ACF00FE48
S31500005B700000000057D100FE080300002CC000FE04
S31500005B8020CF00FE000000005AD100FE08030000EE
S31500005B9044C000FE26CF00FE000000005DD100FEDE
S31500005BA0080300005CC000FE2CCF00FE00000000D1
S31500005BB060D100FE0803000074C000FE32CF00FE74
S31500005BC00000000063D100FE080300008CC000FE48
S31500005BD038CF00FE0000000066D100FE080300007A
S31500005BE0A4C000FE3ECF00FE0000000069D100FE0A
S31500005BF008030000BCC000FE44CF00FE0000000009
S31500005C006CD100FE08030000D4C000FE4ACF00FE9F
S31500005C10000000006FD100FE08030000ECC000FE8B
S31500005C2050CF00FE0000000072D100FE0803000005
S31500005C3004C100FE56CF00FE0000000075D100FE34
S31500005C40080300001CC100FE5CCF00FE000000003F
S31500005C5078D100FE0803000034C100FE62CF00FECA
S31500005C60000000007BD100FE080300004CC100FECE
S31500005C7068CF00FE000000007ED100FE0803000091
S31500005C8064C100FE6ECF00FE0000000081D100FE60
S31500005C90080300007CC100FE74CF00FE0000000077
S31500005CA084D100FE400300003CC200FE7ACF00FE15
S31500005CB00000000087D100FE40030000FCC200FE89
S31500005CC080CF00FE000000008AD100FE1003000015
S31500005CD02CC300FE86CF00FE000000008DD100FE22
S31500005CE0100300005CC300FE8CCF00FE0000000025
S31500005CF090D100FE0803000074C300FE92CF00FEA0
S31500005D000000000093D100FE080300008CC300FED3
S31500005D1098CF00FE0000000096D100FE08030000A8
S31500005D20A4C300FE9ECF00FE0000000099D100FE35
S31500005D3008030000BCC300FEA4CF00FE0000000064
S31500005D409CD100FE08030000D4C300FEAACF00FECB
S31500005D50000000009FD100FE08030000ECC300FE17
S31500005D60B0CF00FE00000000A2D100FE0803000034
S31500005D7004C400FEB6CF00FE00000000A5D100FE60
S31500005D801003000034C400FEBCCF00FE000000007B
S31500005D90A8D100FE080300004CC400FEC2CF00FEDE
S31500005DA000000000ABD100FE400300000CC500FE61
S31500005DB0C8CF00FE00000000AED100FE4003000088
S31500005DC0CCC500FECECF00FE00000000B1D100FE23
S31500005DD0400300008CC600FED4CF00FE0000000089
S31500005DE0B4D100FE08030000A4C600FEDACF00FE10
S31500005DF000000000B7D100FE4003000064C700FEAB
S31500005E00E0CF00FE00000000BAD100FE4003000013
S31500005E1024C800FEE6CF00FE00000000BDD100FE53
S31500005E2040030000E4C800FEECCF00FE00000000C6
S31500005E30C0D100FE40030000A4C900FEF2CF00FE60
S31500005E4000000000C3D100FE4003000064CA00FE4B
S31500005E50F8CF00FE00000000C6D100FE08030000D7
S31500005E607CCA00FEFECF00FE00000000C9D100FE85
S31500005E700803000094CA00FE04D000FE00000000E3
S31500005E80CCD100FE08030000ACCA00FE0AD000FE1A
S31500005E9000000000CFD100FE08030000C4CA00FEC7
S31500005EA010D000FE00000000D2D100FE0803000062
S31500005EB0DCCA00FE16D000FE00000000D5D100FEB0
S31500005EC008030000F4CA00FE1CD000FE000000001B
S31500005ED0D8D100FE080300000CCB00FE22D000FE45
S31500005EE000000000DBD100FE0803000024CB00FE0A
S31500005EF028D000FE00000000DED100FE08030000EE
S31500005F003CCB00FE2ED000FE00000000E1D100FEDA
S31500005F100803000054CB00FE34D000FE0000000051
S31500005F20E4D100FE080300006CCB00FE3AD000FE70
S31500005F3000000000E7D100FE0803000084CB00FE4D
S31500005F4040D000FE00000000EAD100FE0803000079
S31500005F509CCB00FE46D000FE00000000EDD100FE06
S31500005F6008030000B4CB00FE4CD000FE0000000089
S31500005F70F0D100FE08030000CCCB00FE52D000FE9C
S31500005F8000000000F3D100FE08030000E4CB00FE91
S31500005F9058D000FE00000000F6D100FE0803000005
S31500005FA0FCCB00FE5ED000FE00000000F9D100FE32
S31500005FB00803000014CC00FE64D000FE00000000C0
S31500005FC0FCD100FE080300002CCC00FE6AD000FEC7
S31500005FD000000000FFD100FE0803000044CC00FED4
S31500005FE070D000FE0000000002D200FE0803000090
S31500005FF05CCC00FE76D000FE0000000005D200FE5C
S315000060000803000074CC00FE7CD000FE00000000F7
S3150000601008D200FE080300008CCC00FE82D000FEF1
S31500006020000000000BD200FE08030000A4CC00FE16
S3150000603088D000FE000000000ED200FE080300001B
S31500006040BCCC00FE8ED000FE0000000011D200FE87
S3150000605008030000D4CC00FE94D000FE000000002F
S3150000606014D200FE08030000ECCC00FE9AD000FE1D
S315000060700000000017D200FE0803000004CD00FE59
S31500006080A0D000FE000000001AD200FE08030000A7
S315000060901CCD00FEA6D000FE000000001DD200FEB2
S315000060A00803000034CD00FEACD000FE0000000066
S315000060B020D200FE080300004CCD00FEB2D000FE48
S315000060C00000000023D200FE0803000064CD00FE9D
S315000060D0B8D000FE0000000026D200FE0803000033
S315000060E07CCD00FEBED000FE0000000029D200FEDE
S315000060F00803000094CD00FEC4D000FE000000009E
S315000061002CD200FE08030000ACCD00FECAD000FE73
S31500006110000000002FD200FE08030000C4CD00FEE0
S31500006120D0D000FE0000000032D200FE08030000BE
S31500006130DCCD00FED6D000FE0000000035D200FE09
S3150000614008030000F4CD00FEDCD000FE00000000D5
S3150000615038D200FE080300000CCE00FEE2D000FE9E
S31500006160000000003BD200FE0803000024CE00FE23
S31500006170E8D000FE000000003ED200FE080300004A
S315000061803CCE00FEEED000FE0000000041D200FE34
S3150000619008030000080000001A17000008000000AD
S315000061A00D170000080000003D1700000800000061
S315000061B00417000008000000301700000800000067
S315000061C011170000080000005B170000080000001F
S315000061D01517000008000000C7170000080000009F
S315000061E031170000080000004117000008000000F9
S315000061F00717000008000000101700000800000044
S3150000620005170000400000006F1700004000000066
S3150000621023170000080000006517000008000000B2
S315000062203B170000080000001C17000008000000D3
S315000062301B170000100000002F17000008000000C8
S3150000624018170000080000001917000008000000D9
S315000062503B17000008000000E317000010000000D4
S31500006260DE17000008000000E2170000080000002A
S315000062701D170000080000001E170000080000009F
S315000062806A170000080000006217000008000000FE
S315000062908E170000080000006417000008000000C8
S315000062A060170000080000007C17000008000000CE
S315000062B044170000080000003C170000080000001A
S315000062C0B9170000080000007E1700000800000053
S315000062D0A217000008000000871700000800000051
S315000062E08517000008000000E41700000800000001
S315000062F0E5170000080000000F1700000800000066
S3150000630006170000080000007D17000008000000C6
S315000063109E17000008000000461700000800000055
S315000063204917000008000000801700000800000060
S31500006330BC170000080000004F170000080000000E
S31500006340BA170000080000008617000008000000C9
S31500006350AC170000080000008C17000008000000C1
S3150000636089170000080000006117000008000000FF
S31500006370D4170000080000005417000008000000B1
S3150000638051170000080000009917000008000000DF
S31500006390F4170000080000006C1700000800000059
S315000063A0B317000008000000FC17000008000000FA
S315000063B09A17000008000000BB1700000800000044
S315000063C08A17000008000000AD1700000800000052
S315000063D09117000008000000CA170000080000001E
S315000063E00717000008000000BE17000008000000A4
S315000063F03617000008000000E9170000080000003A
S315000064001C170000080000004717000008000000E5
S315000064100117000008000000A31700000800000094
S31500006420C017000008000000A817000008000000C0
S31500006430A6170000080000005D1700000800000015
S31500006440FB170000080000002017000008000000ED
S315000064504B17000008000000E617000008000000C7
S31500006460E7170000080000005C17000008000000A5
S31500006470EC17000008000000671700000800000085
S315000064800017000008000000821700000800000046
S31500006490A017000008000000081700000800000010
S315000064A00C17000008000000D917000008000000C3
S315000064B03E17000008000000131700000800000047
S315000064C0DD17000008000000951700000800000016
S315000064D0B017000008000000C41700000800000004
S315000064E063170000080000001217000008000000F3
S315000064F01717000008000000C2170000080000007F
S315000065001517000008000000C8170000080000006A
S315000065101F1700001000000076170000080000009A
S315000065207917000008000000781700000800000036
S315000065304417000040000000CF17000008000000CC
S315000065408B170000080000005F170000080000001D
S315000065503717000008000000DB17000008000000E5
S31500006560C117000008000000AA170000080000007C
S315000065703A17000008000000E11700004000000084
S31500006580CD17000040000000CE17000008000000F4
S315000065903C17000008000000EA1700000800000091
S315000065A0D317000040000000221700004000000042
S315000065B029170000400000004017000040000000BE
S315000065C041170000080000009617000008000000B0
S315000065D0A117000008000000BF1700000800000017
S315000065E058170000080000004217000008000000CD
S315000065F069170000400000005E1700000800000058
S3150000660043170000080000007B1700000800000088
S31500006610721700000800000036170000080000008E
S315000066206E17000008000000421700000800000076
S315000066309B17000008000000771700000800000004
S3150000664048170000080000003F170000080000007F
S315000066504E17000008000000DA17000008000000CE
S31500006660241700000800000056170000080000006C
S315000066705717000008000000391700000800000046
S315000066804A17000008000000551700000800000027
S31500006690DC170000080000000B17000008000000CF
S315000066A06D170000080000005217000008000000E7
S315000066B053170000080000002A1700000800000019
S315000066C02C170000080000002D170000080000002D
S315000066D02E17000008000000D71700000800000071
S315000066E05917000008000000DF170000080000002E
S315000066F00917000008000000EB1700000800000062
S315000067009717000008000000AB1700000800000003
S31500006710B7170000080000007A170000000000000C
S31500006720000008000000241B0000261B0000301B90
S3150000673000003A1B00003C1B0000251B0000271B25
S315000067400000311B00003B1B00003D1B0000031B2B
S315000067500000171B0000191B0000071B0000291B67
S315000067600000371B00000B0000003E1B0000391B19
S315000067700000431B0000471B0000021B00002B1BF0
S315000067800000061B0000281B0000361B00003F1BF4
S315000067900000381B0000421B0000461B00000F1BB8
S315000067A00000111B0000131B0000451B00001B1BF3
S315000067B000001D1B00001F1B0000211B00000E1BFC
S315000067C00000101B0000121B00001A1B00001C1BFF
S315000067D000001E1B0000201B0000401B0000411B88
S315000067E00000161B0000181B00002E1B00002F1BAC
S315000067F00000051B0000091B00000B1B00000D1B01
S315000068000000151B0000231B0000041B00002A1BB0
S315000068100000081B00000A1B00000C1B0000141BD4
S315000068200000221B00002C1B0000321B0000341B42
S315000068300000481B00002D1B0000441B0000331BFA
S315000068400000351B0000491B0000011B44D200FE5E
S31500006850080000004CD200FE08000000052B044C86
S315000068601B014E1B014F1B01511B014D1B01501BF0
S31500006870010000020136010036010000024A1B0138
S315000068804B1B01000002000008690000046A0000BA
S3150000689000000000E46B0000EC6B0000000000004C
S315000068A0F46B0000046C0000000000000000000013
S315000068B0106C0000206C0000286C00002C6C00009E
S315000068C0000000000000000000000000306C000026
S315000068D0B86C000000000000C06C00007E00F000F4
S315000068E000000400040000004C00520000000000FC
S315000068F00700040001000200000000000000430041
S315000069000400000007000000000403040604090454
S315000069100C040F046B2A4B2A120415046C2A180463
S31500006920072A1B041E042104240427042A042D0418
S3150000693030043304360439043C043F04420445045D
S3150000694048044B044E045104540457045A045D048D
S3150000695060046304660469046C046F0472047504BD
S31500006960742A752A7804762A7B04772A782A792A63
S315000069707A2A7B2A7C2A662A6F2A7D2A7E047E2A28
S315000069808104840487048A048D0490049304960485
S3150000699099049C049F04A204A504A804AB046A2AD3
S315000069A0AE04B104B404B704BA04BD04672A4A2A83
S315000069B0C004C304C604682AC904CC04CF04D204A4
S315000069C0D504D804DB044D2ADE04E104E4044F2A8E
S315000069D0E704EA04ED04F004F304172A512AF60446
S315000069E0F904FC04FF040204050408040B040E0465
S315000069F01104140417041A041D04802A2004712AA1
S31500006A00722A732A02291C2911291A2933290F29C6
S31500006A1027292A2908291629052915293E29002961
S31500006A2031290C292F2920291329212900020102A5
S31500006A300202030204020502060207022C290B02C7
S31500006A400C020D021702080209020A020E020F02C8
S31500006A50140219021002110212020A2913021A0262
S31500006A602A02150216021B021C0209292C02220206
S31500006A7023021D02352924291E021F0224022D028B
S31500006A8018022B02580254025A0220022E02210238
S31500006A902F0230022E29590231025B0206292502F5
S31500006AA023293629320233023402390226022529E5
S31500006AB03A0227023B023C02280229023D026002FA
S31500006AC035023E023F0240024102360237023802D8
S31500006AD044024502460247026102620263024F0215
S31500006AE042020E29500243022D2951022629520242
S31500006AF0530264026502480249024A024B024C02F2
S31500006B0022294D024E025C025E02550256025702CF
S31500006B105D0270025F0286028702710272027302D0
S31500006B207402880289028A0240298B0217294129A8
S31500006B303F296602670268027D027E0281020B29F6
S31500006B4075027602372969026A026B026C027902C3
S31500006B506D026E026F02770278027A027B027C0275
S31500006B607F028202830238298002840285028C0217
S31500006B701829142901298D021029122903291B29F4
S31500006B8030298E028F0290029102920293029402A1
S31500006B9098029502960297029A029B02322999025E
S31500006BA09D020D299C02A4029E029F02A002A10240
S31500006BB0A2021E29A3021D29A502A602A702A80257
S31500006BC0A902AA02AB02AC021F2919290729292901
S31500006BD004292B29AD02AE02AF023D29B0022829B5
S31500006BE04229342939283C283B283A28132A142AD2
S31500006BF0152A162A002B012B022B032B042B052BFF
S31500006C00062B0000002E012E022E032E042E052E2A
S31500006C100000042B00000000012B032B022B0000B8
S31500006C2000000000012E022E4B0A00000108010898
S31500006C30B6178D17881773171F17401726172817AB
S31500006C4020179F1727177417CC175A1732173E1796
S31500006C5021174317CB17751745173517D21738174E
S31500006C600019BD17031933173717E8170119F0175D
S31500006C703917B417F117C3171617C5173F17B117EA
S31500006C802B1770173A176617031771176B17021928
S31500006C90981701178F1794171417B8170417D117D9
S31500006CA068173417A4172517B2173517E0174D17AD
S31500006CB03D170A1745170000001B001B011B031B8D
S31500006CC04B1B031B001B001B001B011B021B0000B0
S31500006CD0322702007A220200961E0200BE2202001D
S31500006CE004240200242402000E230200DA230200F8
S31500006CF04424020064240200BA1F02007420020029
S31500006D00161E0200821F0200981F02004421020084
S31500006D10D8210200F0230200521D0200A424020022
S31500006D20E224020072250200C02502003E2602006F
S31500006D3058260200EA260200F22702002028020056
S31500006D408C270200AC270200BA200200622702004C
S31500006D506A270200722702006E2902007A270200C3
S31500006D605E230200BE2702003E20020036280200F3
S31500006D7040280200562902004A2802007A2802000A
S31500006D80AA280200F4280200002902001C29020099
S31500006D90003602004C260200B8240200D42C020061
S31500006DA0D62C0200DA2C02000000000000000000D1
S31500006DB09C6D00009C6D00009C6D0000C06D000085
S31500006DC0DC2C0200022D0200322D0200FFFFFFFF25
S31500006DD0040000000001000124000000240000005F
S31500006DE03100000031000000000000002400000017
S31500006DF02400000031000000310000000000000007
S31500006E0024000000240000003100000031000000D2
S31500006E10000000003100000031000000000000000A
S31500006E200C000000240000003000000001000000FB
S31500006E30020000000B0000002400000025000000F6
S31500006E4001000000030000002400000024000000F0
S31500006E503100000032000000010000003100000097
S31500006E6032000000010000000A00000024000000BB
S31500006E703200000032000000020000002400000082
S31500006E80240000000A00000032000000010000009B
S31500006E9024000000240000000A0000003200000068
S31500006EA0010000000F000000320000000100000099
S31500006EB002000000240000000B0000003200000069
S31500006EC0010000000A00000024000000320000005B
S31500006ED0320000000300000024000000240000002F
S31500006EE00A00000032000000010000000A00000055
S31500006EF032000000010000000D0000002400000028
S31500006F00310000003200000004000000090000000B
S31500006F10050000002B000000320000000600000003
S31500006F2009000000240000003200000032000000CA
S31500006F3005000000320000003200000009000000D9
S31500006F401B000000190000001B00000032000000BA
S31500006F500B0000001C0000002400000031000000AF
S31500006F60320000000500000024000000240000009C
S31500006F70210000003200000009000000320000007D
S31500006F803200000009000000030000002400000099
S31500006F902D00000031000000060000000400000083
S31500006FA01D0000002E000000320000000700000057
S31500006FB004000000240000002E0000003200000043
S31500006FC0050000001F00000032000000090000005C
S31500006FD0110000001E000000280000003200000022
S31500006FE00500000024000000240000001C00000032
S31500006FF01600000008000000240000002400000025
S3150000700032000000320000000500000032000000DF
S3150000701032000000050000000D0000002400000002
S3150000702031000000320000000800000009000000E6
S315000070301F000000320000003200000005000000C2
S3150000704024000000240000002800000022000000A8
S3150000705005000000320000003200000005000000BC
S3150000706010000000240000001C00000015000000B5
S3150000707004000000240000002400000009000000B5
S31500007080320000000A000000240000002400000076
S3150000709009000000320000000A000000090000009C
S315000070A0320000000A000000060000002400000074
S315000070B018000000320000000A0000002400000052
S315000070C024000000190000000F000000220000004C
S315000070D02400000024000000190000000F0000003A
S315000070E022000000190000000F000000220000002E
S315000070F00600000024000000170000003100000018
S315000071000B00000024000000240000000F00000017
S3150000711032000000220000002400000024000000CD
S3150000712032000000320000002200000032000000A1
S3150000713032000000220000000600000024000000CB
S3150000714024000000310000000C00000023000000B5
S315000071502300000032000000320000002200000080
S3150000716005000000240000002A0000003200000094
S315000071700D00000032000000320000000E0000008A
S3150000718003000000240000002D0000003100000074
S315000071900D00000004000000240000002E00000086
S315000071A0320000000E000000240000002400000051
S315000071B02100000010000000220000003200000044
S315000071C03200000022000000100000002400000031
S315000071D01A000000320000000F0000001800000036
S315000071E02400000010000000320000002200000011
S315000071F024000000240000001400000032000000FB
S3150000720012000000320000003200000022000000E0
S315000072100D000000240000003100000032000000D4
S315000072200F00000010000000090000001D00000013
S315000072301A000000100000001000000024000000EA
S3150000724014000000320000001100000032000000AF
S3150000725032000000220000000D00000024000000A3
S31500007260310000003200000010000000090000009C
S31500007270180000001000000032000000220000008C
S3150000728009000000240000001D000000140000009A
S315000072901100000014000000320000001100000080
S315000072A00D00000024000000310000003200000044
S315000072B01100000009000000240000001D0000006D
S315000072C01400000012000000150000002400000059
S315000072D01D00000014000000120000001400000051
S315000072E032000000110000000D0000002400000024
S315000072F0310000003200000012000000090000000A
S3150000730024000000100000003200000022000000EF
S3150000731015000000240000001000000032000000EC
S3150000732022000000140000003200000012000000DD
S3150000733006000000240000001800000032000000D3
S3150000734013000000240000002400000019000000C3
S31500007350320000002200000024000000240000008B
S315000073601900000032000000220000001900000091
S3150000737032000000220000000D0000002400000082
S315000073803100000032000000140000000900000077
S31500007390100000001C000000130000001400000094
S315000073A024000000240000001E0000001100000060
S315000073B0220000001E000000110000002200000054
S315000073C00D00000024000000310000003200000023
S315000073D01500000009000000100000001C0000005D
S315000073E01200000015000000240000002400000028
S315000073F01E00000011000000220000001E00000018
S315000074001100000022000000070000002400000018
S315000074103200000032000000220000000F000000D1
S3150000742024000000320000003200000017000000B7
S315000074301A000000240000000000000032000000D6
S3150000744019000000000000003200000018000000D3
S3150000745020000000210000002F0000003100000085
S31500007460170000002000000022000000320000008B
S315000074703200000018000000240000002400000074
S315000074802C000000320000001B000000320000004B
S31500007490320000002200000012000000140000006C
S315000074A01A000000320000001E000000120000005A
S315000074B024000000200000000D000000160000005F
S315000074C01700000024000000050000003200000044
S315000074D01D00000004000000320000001C00000037
S315000074E01200000024000000200000000D00000033
S315000074F01600000016000000240000002200000014
S31500007500050000001D00000024000000240000000B
S31500007510200000000D000000160000002000000002
S315000075200D00000016000000090000002400000005
S31500007530290000000D0000001600000010000000E9
S31500007540240000001C0000001A0000001E000000BD
S315000075502400000024000000290000000D000000A7
S3150000756016000000290000000D00000016000000B3
S3150000757003000000240000002D0000003100000080
S315000075801B00000004000000240000000D000000A5
S3150000759032000000160000001A000000240000005F
S315000075A0000000003200000019000000000000008A
S315000075B032000000180000000D0000001A00000054
S315000075C0260000002700000019000000130000003C
S315000075D02400000032000000320000001C00000001
S315000075E024000000240000000D000000320000000E
S315000075F0160000000D00000032000000160000001A
S3150000760013000000240000003200000032000000D9
S315000076101D00000024000000240000000D000000F2
S3150000762032000000160000002400000024000000C4
S315000076300D00000032000000160000000D000000E2
S3150000764032000000160000000D0000001A000000C5
S315000076502600000032000000190000000D000000A6
S315000076602400000031000000320000001E0000006F
S315000076702400000024000000320000003200000058
S315000076801A00000032000000320000001A0000005C
S31500007690010000002400000032000000320000005B
S315000076A02200000008000000240000003200000054
S315000076B0320000002100000000000000240000004D
S315000076C02300000008000000200000002000000049
S315000076D00E0000001F000000130000002400000040
S315000076E032000000320000002000000024000000EC
S315000076F0240000000E000000320000001F00000001
S3150000770024000000240000000E00000032000000EB
S315000077101F0000000E000000320000001F000000E5
S3150000772001000000240000003200000032000000CA
S31500007730220000000E0000002400000031000000BE
S315000077403200000021000000240000002400000098
S31500007750320000003200000022000000320000006B
S315000077603200000022000000240000002400000077
S315000077703200000032000000220000002400000059
S315000077802400000032000000320000002200000049
S315000077902400000024000000320000003200000037
S315000077A0220000003200000032000000220000002B
S315000077B0070000000C000000070000001500000094
S315000077C0040000000600000009000000130000008D
S315000077D00800000013000000140000000B00000069
S315000077E0120000001500000009000000060000005D
S315000077F01F0000000D00000003000000160000003E
S315000078000C000000320000002200000017000000FB
S3150000781032000000220000001500000032000000C7
S31500007820220000000E000000B82F020026300200E1
S315000078303230020048300200683002008830020010
S315000078409C300200A8300200B8300200C4300200AA
S31500007850D0300200DE300200F2350200EC300200C9
S31500007860583102001C3202007E31020096310200BD
S31500007870AE310200D4310200EA31020010320200B9
S3150000788068320200B0320200B4320200DC3202007A
S315000078907A3302000E33020012330200163302005E
S315000078A028330200383302004A33020058330200FC
S315000078B06E330200E2310200E631020000000000F1
S315000078C000000000000000000000000000000000B2
S315000078D000000000000000000000000000000000A2
S315000078E013000000130000005A00000059000000B9
S315000078F0000000005A0000005900000000000000CF
S315000079001300000013000000590000005900000099
S31500007910000000005A0000005900000000000000AE
S3150000792013000000130000003E0000005900000094
S31500007930030000005A00000059000000000000008B
S3150000794013000000130000000B00000059000000A7
S31500007950000000000B0000005900000000000000BD
S31500007960090000001300000032000000590000006A
S31500007970040000003300000059000000050000006C
S315000079801300000013000000040000002D0000009A
S3150000799006000000040000002D00000006000000A4
S315000079A013000000130000002F0000005900000023
S315000079B0070000002F00000059000000070000002B
S315000079C0130000001300000006000000070000007E
S315000079D00000000006000000070000000000000094
S315000079E005000000130000003900000059000000E7
S315000079F0000000003A00000039000000000000000E
S31500007A0005000000130000000F0000003900000010
S31500007A10000000003A0000003900000000000000ED
S31500007A2009000000130000002700000033000000DA
S31500007A30090000003B0000003900000000000000C3
S31500007A400900000013000000530000003100000090
S31500007A50080000005300000039000000000000008C
S31500007A60130000001300000027000000280000009B
S31500007A700D00000059000000590000000000000041
S31500007A801300000013000000290000005900000048
S31500007A900E00000059000000590000000000000020
S31500007AA01300000013000000390000005900000018
S31500007AB0000000003900000059000000000000002E
S31500007AC01300000013000000410000003900000010
S31500007AD000000000590000005900000000000000EE
S31500007AE013000000130000004000000039000000F1
S31500007AF000000000590000005900000000000000CE
S31500007B0013000000130000000200000059000000EE
S31500007B1011000000020000005900000011000000E2
S31500007B200900000013000000590000005900000081
S31500007B3013000000380000001400000014000000CC
S31500007B400C000000130000000500000039000000D2
S31500007B50000000001400000059000000140000009E
S31500007B60090000001300000010000000590000008A
S31500007B7015000000050000003900000000000000AC
S31500007B800A000000130000002E000000590000004B
S31500007B901600000014000000590000001400000048
S31500007BA008000000130000002E000000590000002D
S31500007BB01600000016000000590000001200000028
S31500007BC00700000013000000370000003900000025
S31500007BD00000000019000000590000001900000014
S31500007BE00700000013000000370000003900000005
S31500007BF000000000130000005900000017000000FC
S31500007C0013000000130000000A0000003900000005
S31500007C1000000000390000005900000000000000CC
S31500007C2005000000130000004F00000039000000AE
S31500007C3000000000500000003900000000000000B5
S31500007C400500000013000000340000005900000089
S31500007C501A0000005000000039000000000000007B
S31500007C600500000013000000350000005900000068
S31500007C701B0000005000000039000000000000005A
S31500007C800500000013000000360000005900000047
S31500007C901C00000050000000390000000000000039
S31500007CA005000000130000002B0000005900000032
S31500007CB01F00000052000000390000000000000014
S31500007CC005000000130000005900000059000000E4
S31500007CD020000000520000003900000000000000F3
S31500007CE001000000130000002A00000059000000F7
S31500007CF01E0000002C0000005900000021000000BA
S31500007D0005000000130000005100000039000000CB
S31500007D1000000000520000003900000000000000D2
S31500007D2013000000130000000200000059000000CC
S31500007D30220000000200000059000000220000009E
S31500007D4013000000130000000300000039000000CB
S31500007D5000000000030000003900000000000000E1
S31500007D60130000001300000000000000590000008E
S31500007D702400000059000000590000000000000027
S31500007D80130000001300000001000000590000006D
S31500007D902500000059000000590000000000000006
S31500007DA000000000130000003B0000003900000046
S31500007DB000000000590000005900000027000000E4
S31500007DC002000000130000001C0000005900000023
S31500007DD02E00000059000000590000002800000095
S31500007DE00D00000013000000200000001500000038
S31500007DF0260000003B0000003900000000000000E3
S31500007E0002000000130000005900000059000000A5
S31500007E102A00000059000000590000002B00000055
S31500007E2000000000130000003B00000039000000C5
S31500007E30000000001D000000590000002F00000097
S31500007E400D000000130000003F00000015000000B8
S31500007E50290000003B00000039000000000000007F
S31500007E600E00000013000000390000005900000059
S31500007E700000000059000000590000002D0000001D
S31500007E800B000000130000001D0000005900000058
S31500007E902F0000001F00000059000000290000000C
S31500007EA013000000130000001A0000005900000033
S31500007EB02C000000590000005900000000000000DE
S31500007EC013000000130000001A0000005900000013
S31500007ED02C000000590000005900000000000000BE
S31500007EE009000000130000005900000059000000BE
S31500007EF031000000140000005900000032000000AC
S31500007F000200000013000000050000001E00000033
S31500007F1036000000050000002E00000037000000BB
S31500007F2009000000130000001000000059000000C6
S31500007F3031000000050000003900000000000000CC
S31500007F400E00000013000000390000005900000078
S31500007F500000000059000000590000003400000035
S31500007F6007000000030000001100000030000000C0
S31500007F703600000011000000590000003500000026
S31500007F800A00000013000000220000002E0000007E
S31500007F90370000002200000014000000320000003C
S31500007FA00500000004000000590000005900000010
S31500007FB0350000001B0000005900000033000000DF
S31500007FC00800000013000000160000005900000021
S31500007FD03000000059000000590000003800000081
S31500007FE0090000000C0000005400000039000000E9
S31500007FF000000000140000005900000032000000DC
S3150000800002000000130000002500000059000000D7
S315000080103B00000020000000150000003A000000B0
S3150000802013000000130000002500000059000000A6
S315000080303B0000003900000059000000000000006D
S315000080400700000013000000260000005900000091
S315000080503C00000032000000590000003B00000018
S3150000806013000000130000003C000000390000006F
S315000080700000000059000000590000000000000048
S315000080800700000013000000370000003900000060
S31500008090000000003D000000590000004100000003
S315000080A0060000001300000039000000590000001F
S315000080B0000000000C000000390000000000000075
S315000080C00900000013000000080000002100000065
S315000080D04200000059000000590000004000000066
S315000080E006000000130000003900000059000000DF
S315000080F0000000000D000000390000000000000034
S3150000810013000000130000001700000059000000D3
S315000081103E00000059000000590000000000000069
S315000081200E000000130000000C00000039000000E3
S31500008130000000003D000000590000004100000062
S315000081401300000013000000590000003900000071
S315000081500000000059000000590000000000000067
S315000081600500000013000000240000005900000074
S31500008170450000000E00000039000000000000006D
S3150000818013000000130000000E000000390000007C
S31500008190000000000E000000390000000000000092
S315000081A013000000130000005500000059000000F5
S315000081B0470000005500000059000000470000007D
S315000081C012000000130000005700000059000000D4
S315000081D0460000005600000059000000480000005C
S315000081E010000000130000004C00000059000000C1
S315000081F05100000039000000590000000000000096
S3150000820007000000130000003900000059000000BC
S315000082100000000018000000590000004B0000009C
S31500008220070000001300000039000000590000009C
S315000082300000000012000000590000004900000084
S3150000824013000000130000000900000039000000C0
S315000082500000000059000000590000000000000066
